:100000000C9461080C947E080C947E080C947E0875
:100010000C947E080C947E080C947E080C947E0848
:100020000C947E080C947E080C947E080C947E0838
:100030000C947E080C947E080C947E080C947E0828
:100040000C947E080C947E080C947E080C947E0818
:100050000C947E080C947E080C947E080C947E0808
:100060000C947E080C947E080C947E080C947E08F8
:100070000C947E080C947E080C947E080C947E08E8
:100080000C947E080C947E080C947E080C947E08D8
:100090000C947E080C947E080C947E080C947E08C8
:1000A0000C947E080C947E080C947E080C947E08B8
:1000B0000C947E080C947E080C947E080C947E08A8
:1000C0000C947E080C947E080C947E0854075510FE
:1000D00006090B0261055006650052B86400510024
:1000E00005A10D0018010C01460748077201FFFF2A
:1000F000FFFF3A00643A65BB083A09BB50105267EB
:10010000517705A11804540155210700060C0B0373
:10011000501051005204610F6455655505A1180433
:10012000FFFFFFFF3A012A042800290020002100D8
:100130002200230024002500260027002801280291
:10014000218F2803210028042805280628072808CD
:100150002809280A280B280C20802190280D20002F
:100160002100280E20812191280F200021922810A3
:100170002100281121932812210028132814281562
:100180002082281620002817281828192194281AB8
:100190002195281B2196281C2100281D2083281E1C
:1001A0002000281F219728202100282128222823E9
:1001B000282428252826282728282829282A208472
:1001C000282B2000282C282D282E282F28302831B5
:1001D000283220852833200028342835283628372F
:1001E0002198283821002839283A283B283C283DE6
:1001F000283E283F284028412842284328442845B3
:100200002846284728482849284A284B284C284D62
:10021000284E284F28502851285228532854285512
:100220002856285728582859285A285B285C285DC2
:10023000285E285F286028612862219928632100B0
:10024000286428652866286728682869286A286B32
:10025000286C286D286E286F2870287128722873E2
:10026000287428752876287728782879287A287B92
:10027000287C287D287E287F288028812882288342
:10028000288428852886288728882889288A288BF2
:10029000288C288D288E288F2890289120862892B7
:1002A0002087289320002894289528962897289816
:1002B0002899289A289B289C289D289E289F219A27
:1002C00028A0210028A128A228A328A428A528A680
:1002D00028A728A828A928AA28AB28AC28AD28AE8A
:1002E00028AF28B028B128B228B328B428B528B63A
:1002F00028B728B828B9208828BA200028BB208928
:1003000028BC200028BD28BE28BF28C028C128C27C
:1003100028C3219B28C4210028C528C628C728C86F
:1003200028C928CA28CB28CC28CD28CE28CF28D029
:1003300028D128D228D328D428D528D628D728D8D9
:1003400028D928DA28DB28DC28DD28DE28DF28E089
:1003500028E1208A28E2208B28E3200028E428E5F1
:1003600028E628E728E828E928EA28EB28EC28ED01
:1003700028EE28EF28F028F128F228F328F428F5B1
:1003800028F628F728F8208C28F92000219C28FA44
:10039000219D28FB208D219E28FC208E219F28FD59
:1003A0002000210028FE28FF2A0128002201239591
:1003B0002489250726A42707280121C72200238096
:1003C00026C4270C28022009211C220426AA270A59
:1003D000280320002100220023A626A027072804A6
:1003E00028052005238426B4270928062000220397
:1003F0002300248125C026AB270A280721AE22002E
:1004000023952489250726A42700280821482201AE
:10041000238026C4270C280920092104220426AAA7
:10042000270A280A20002100220023A826A4270743
:10043000280B280C21402220238026C4270C280DBD
:10044000222426C6280E219E220026C8280F200915
:100450002102221426AA270A2810200521002200A2
:10046000238426B427092811200021012300240118
:1004700025C026AB270A281221C3239524892507E6
:10048000262027002813200321C223832626270D98
:10049000281421B322082815200021C62200239504
:1004A000260027082816210023002496250326AAC3
:1004B000270A2817204221B62380248925072818D7
:1004C000200021002394260E2819200F238426B40F
:1004D0002709281A2000239326A82703281B26284B
:1004E0002700281C21012300240125C026AB270A50
:1004F000281D21C523952489250726202700281E8D
:10050000210023942600270A281F260E28202003D6
:100510002179220123832626270D28212132282212
:100520002000210422002380240025FC26AA270A7B
:100530002823210023002500282421A3220D238025
:10054000249E253B28252042215722012489250766
:10055000282620002143220D2400253828272108A1
:10056000229823952489250726242700282820421D
:1005700021932201238026AA270A28292003217EED
:10058000220423832626270D282A200021B02200BA
:10059000239526A02707282B21002300240C2504BF
:1005A00026AA270A282C21022380248625C326ABCD
:1005B000282D2042219722012489250726AA282EAA
:1005C000200021002200241F2504282F21B223957A
:1005D000248925072620270428302042218B220445
:1005E000238026AA270A2831200021B12200239542
:1005F00026A02707283220032175220423832626DC
:10060000270D2833200521002200238426B4270942
:100610002834200021602300240125C026AB270AAE
:100620002835210822982395248925072624270088
:10063000283621BC2200283721A3220D23002401C3
:1006400025C026AB270A28382160220023802400F9
:10065000253826AA2839210622982395248925079A
:1006600026242700283A21BE2200283B200521000D
:10067000238426B42709283C20002160230024017C
:1006800025C026AB270A283D214222012395248933
:10069000250726242700283E210C229826A4270778
:1006A000283F21082840216022002300240125C082
:1006B00026AB270A2841210C229823952489250757
:1006C000262427002842200521002200238426B466
:1006D00027092843200023802400251026AB270A61
:1006E0002844212222012395248925072624270036
:1006F00028452100220023002404251226AA270AC7
:100700002846200321D42205238324892507262671
:10071000270D28472000216022002300240125C046
:1007200026AB270A284821B32395248925072600CC
:1007300027082849210023002409250026AA270A82
:10074000284A210223802486253B284B204221DD94
:10075000220524892507284C200021002200241F7F
:100760002500284D21B3239524892507262027001D
:10077000284E210023002497250326AA270A284F64
:10078000204221E2220523802489250728502000C9
:10079000211022002300248025CC26AB28512100E3
:1007A000224023B42489250726AA270428522200A0
:1007B00023B02692270928532114220123952600CD
:1007C00027082854214823A4262A27002855210039
:1007D000220023002409250026AA270A28562108DA
:1007E00023802486253B2857204221112207248973
:1007F00025072858200021002200241F2500285901
:100800002114220123952489250726202700285A10
:10081000211626022709285B2100220023002480BC
:10082000254826AA270A285C23A024892507261400
:100830002709285D2480255026A42704285E211638
:1008400022012395248925072700285F21042200FF
:100850002300249C257826AA270A28602143220DFC
:10086000240125C426AB2861210322002415286217
:1008700021002400250026AA2863215E23952489CF
:10088000250726102709286421032300241525C4E1
:1008900026AB270A2865210023802400250626AAE6
:1008A0002866248F25E326AB2867204221CD220726
:1008B0002489250726AA2868200021602200230019
:1008C000240125C026AB286921002380248F25031D
:1008D00026AA286A204221DD220724892507286BC1
:1008E00020002143220D2300240125C026AB286CC3
:1008F000210022002400250426AA286D2003217F40
:1009000022012383248925072626270D286E2162AC
:10091000286F200521002200238426B4270928708F
:100920002000210623952600270828712101230095
:100930002497253B26AA270A28722042210E220846
:1009400023802489250728732003213C220B23833D
:100950002626270D28742000210322002395260235
:100960002708287521272300248125C426AB270AC0
:100970002876210023802409254826AA2877215893
:10098000223423A324892507262A2700287821003A
:10099000220023A026002709287921072380240389
:1009A000253926AA270A287A21042300241C253861
:1009B000287B2107238024832539287C2103239544
:1009C0002489250726022708287D21272300248142
:1009D00025C426AB270A287E210023802409254828
:1009E00026AA287F2158223423A324892507262AD2
:1009F00027002880210622002300248125C0269379
:100A000027012881210023802489254826AA270A36
:100A100028822002216622082300240025662883DC
:100A20002000210022002380241F25022884210683
:100A30002489250726DC270C2885210023AA26AA3D
:100A4000270A288623B6260027082887238024869D
:100A5000253B26AA270A288821052489250726DC84
:100A6000270C2889210023AA26AA270A288A23B628
:100A700026002708288B23802486253B26AA270AC0
:100A8000288C2042217B220824892507288D2000DC
:100A900021002200230024012582288E21052481A3
:100AA00025C226AB288F2003219322082383248983
:100AB00025072626270D2890200021052200230047
:100AC000248125C026132701289121002380248911
:100AD000254826AA270A28922002217E22082300E0
:100AE0002400256628932000210022002380241F53
:100AF0002502289421052489250726DC270C289522
:100B0000210023AA26AA270A289623B6260027080A
:100B1000289723802486253B26AA270A2898210582
:100B20002489250726DC270C2899210023AA26AA38
:100B3000270A289A2380241F2502289B21012300AD
:100B4000248125C226AB289C2003219322082383DD
:100B5000248925072626270D289D20002104220010
:100B6000239526122708289E216023C426AA27043D
:100B7000289F210023C02600270928A0204221CB3E
:100B80002208238026AA270A28A12070215422B8EF
:100B900023952612270828A2200221CC2208238090
:100BA00026AA270A28A3200321CA220F2383262648
:100BB000270D28A42000210022002300248C250CCE
:100BC00026AA270A28A521042482257828A6210000
:100BD0002380248925482612270428A7200321DE04
:100BE000220F238325072626270D28A82000210170
:100BF00022002300249C257826AA270A28A9210060
:100C000023802481254028AA200321CF220F23837B
:100C1000248925072626270D28AB2070210822B815
:100C2000239526A0270428AC200321D4220F238358
:100C30002626270D28AD2127220B28AE2070216300
:100C400022B823952612270828AF20002101220070
:100C50002380248625CB26AB270A28B0204221DD1D
:100C600022082489250726AA28B1200021182280DD
:100C7000239526A4270028B2200321D9220F2383FD
:100C80002626270D28B32070210A22B8239526A0F6
:100C9000270028B4200221E02208238026AA270A60
:100CA00028B52070210A22B8239526A0270028B64F
:100CB00021542602270828B720002118228026A4C4
:100CC000270028B82100220023802480254826AA56
:100CD000270A28B92070215E22B823952489250788
:100CE0002612270828BA2000210022002380240988
:100CF000254B26AA270A28BB2070215F22B82395FE
:100D0000248925072610270828BC2000210022005E
:100D10002300241C258326AB270A28BD200321326B
:100D200022092383248925072626270D28BE200093
:100D30002100220023002482258C26AB270A28BF0D
:100D40002003212522092383248925072626270D10
:100D500028C0204221BC238026AA270A28C12000BF
:100D6000210122002300240125C026AB28C22070C7
:100D7000210F22B82395248925072620270028C380
:100D8000200321E3220F23832626270D28C42005D4
:100D900021002200238426B4270928C5200021032E
:100DA00023952614270828C621A623A4262A27052A
:100DB00028C7210023A02644270928C82118226D0E
:100DC0002380249E257B26AA270A28C92042211396
:100DD000220B2489250728CA200021AE2200239552
:100DE0002624270028CB2100220323802487257B6B
:100DF00026AA270A28CC20422116220B248925075F
:100E000028CD200021AE220023952624270028CEBD
:100E100020052100238426B4270928CF2003210D93
:100E2000220B23832626270D28D020002100220014
:100E3000230024802602270028D123802409254866
:100E4000261E28D221582234233324802507262A1F
:100E500028D32100220023002680271028D4211027
:100E60002363262A270028D52100236026A82712DD
:100E700028D621AF224C230026C8270C28D72100D2
:100E800022002680270528D823802486253B261E7D
:100E9000270028D92042211C220E23002480250768
:100EA00028DA20002135222926C4270C28DB20023D
:100EB000211D220E261E270028DC2000217F22343F
:100EC00026C4270C28DD210022002390249F25041E
:100ED0002610270A28DE23002484250026802710D8
:100EE00028DF2106236324802507262A270028E0FF
:100EF00021002380248926AA270A28E120052384AB
:100F000026B4270928E22070216122B823952612F1
:100F1000270828E32000210122002380248625C3FE
:100F200026AB270A28E4204221CE220F2489250758
:100F300026AA28E52070215022B8239526122708DA
:100F400028E6200521002200238426B4270928E76B
:100F50002070216422B823952612270828E8200053
:100F6000210122002380248625C326AB270A28E9F5
:100F7000204221D3220F2489250726AA28EA20709F
:100F8000215122B823952612270828EB200521009D
:100F90002200238426B4270928EC2070216522B87A
:100FA00023952612270828ED200021012200238006
:100FB000248625C326AB270A28EE204221D8220FFB
:100FC0002489250726AA28EF2070215222B82395CC
:100FD0002612270828F0200521002200238426B4A9
:100FE000270928F12070216122B8239526022708BD
:100FF00028F22000210122002380248625C326AB6D
:10100000270A28F3204221DD220F2489250726AA5A
:1010100028F42070215022B823952602270828F5AD
:10102000200521002200238426B4270928F6200069
:1010300021012380248625CB26AB270A28F72042CE
:1010400021E1220F2489250726AA28F82000210261
:1010500022002300248125C426AB28F92100238007
:101060002489254826AA28FA20052384250726B4A2
:10107000270928FB2070214E22B823952610270827
:1010800028FC2000210022002380248625C326ABD3
:10109000270A28FD204221E7220F2489250726AAB6
:1010A00028FE200021BB220023952620270028FFB0
:1010B00020052100238426B427092A081001FFFFF8
:1010C000FFFF11241FBECFEFD8E0DEBFCDBF11E080
:1010D000A0E0B1E0E8EAFEE102C005900D92A43A7A
:1010E000B107D9F721E0A4EAB1E001C01D92A43A0A
:1010F000B207E1F70E9490080C94520F0C94000084
:10110000FC012181622B61830895FC012281622B05
:1011100062830895FC01928160956923628308953A
:10112000CF93DF93CDB7DEB7E3970FB6F894DEBF6A
:101130000FBECDBF88E1E0E0F1E0DE011196019045
:101140000D928A95E1F781E1E9E1F1E0DE0159963E
:1011500001900D928A95E1F78AE0EBE2F1E0DE0181
:101160009A9601900D928A95E1F761E083E290E012
:101170000E94800866E086E290E00E94800866E0B7
:1011800089E290E00E94800860E875E288EC90E0D7
:101190000E94DE0BAE014F5F5F4F68E188EC90E08C
:1011A0000E940C0C40E85AE166E070E088ED90E0A7
:1011B0000E94750AAE01475E5F4F68E188EC90E0DF
:1011C0000E940C0C88ED90E00E94FA088F3F49F4D1
:1011D000AE01465D5F4F6AE088EC90E00E940C0C27
:1011E00008C0AE01475E5F4F61E188EC90E00E946D
:1011F0000C0CFFCFCF92DF92EF92FF920F931F93D1
:10120000CF93DF93CDB7DEB7CD55D1090FB6F894A4
:10121000DEBF0FBECDBF7C0188E1E6E3F1E0DE0179
:10122000119601900D928A95E1F761E083E290E0DA
:101230000E948A088FE99FE00197F1F700C0000043
:1012400061E083E290E00E94850866E089E290E038
:101250000E948A0866E086E290E00E9485089E016E
:10126000275E3F4F43E050E063E4C7010E94570B05
:10127000082F11E30CC09E01275E3F4F43E050E072
:1012800063E4C7010E94570B082F115019F00F3F5C
:1012900091F7F1C08B8D1F928F938FE491E09F9314
:1012A0008F936E019EE1C90ED11CDF92CF920E94F6
:1012B000680CA60160E088EC90E00E940C0C0F9096
:1012C0000F900F900F900F900F900F3F31F0A601ED
:1012D00060E088EC90E00E940C0C00E0809124011A
:1012E00090912501FC01E00FF11DE491EC8F21E0CC
:1012F000200FFC01E20FF11DE491ED8F0E5FAE01B6
:101300004F5F5F4F68E188EC90E00E940C0C10E0AA
:101310009E01245E3F4F42E050E063E4C7010E941B
:10132000DE0A1F5F8F3F19F0123391F7BFC08C8D1B
:101330008F3F19F0123390F213C0123388F483E117
:10134000E8E6F1E0DE015E9601900D928A95E1F704
:10135000AE01425E5F4F60E088EC90E00E940C0CB2
:101360002FEF80E792E0215080409040E1F700C0ED
:1013700000008091F2009091F300FC01E00FF11D5C
:10138000E491EC8F21E0200FFC01E20FF11DE491CC
:10139000ED8F0E5F10E09E01245E3F4F42E050E073
:1013A00063E488ED90E00E94DE0A1F5F8F3F19F032
:1013B000123389F780C08C8D8F3F19F01233C8F239
:1013C00013C0123388F483E1EBE7F1E0DE015E96AF
:1013D00001900D928A95E1F7AE01425E5F4F60E0A9
:1013E00088EC90E00E940C0C00E08091CC00909181
:1013F000CD00FC01E00FF11DE491EC8F21E0200F06
:10140000FC01E20FF11DE491ED8F0E5F10E09E01F3
:10141000245E3F4F42E050E063E488ED90E00E949C
:10142000DE0A1F5F8F3F19F0123389F749C08C8D98
:101430008F3F19F01233C8F213C0123388F486E1DB
:10144000EEE8F1E0DE015E9601900D928A95E1F7FB
:10145000AE01425E5F4F60E088EC90E00E940C0CB1
:1014600066E086E290E00E948A0881E0123308F08C
:1014700080E081952AC08B8D1F928F938FE491E03D
:101480009F938F938E01025E1F4F1F930F930E94B5
:10149000680CA80160E088EC90E00E940C0C0F90B2
:1014A0000F900F900F900F900F9017CF8C8D8F3F54
:1014B00009F443CF55CF8C8D8F3F09F482CF94CF61
:1014C0008C8D8F3F09F4B9CFCBCFC35ADF4F0FB606
:1014D000F894DEBF0FBECDBFDF91CF911F910F916A
:1014E000FF90EF90DF90CF900895CF92DF92EF9230
:1014F000FF92CF93DF93EC019A01AB0160E074E2BD
:1015000084EF90E00E94460C69017A0180E1C81ADC
:10151000D108E108F108C701B6012EEF31E040E043
:1015200050E00E94460C211531054105510531F46A
:10153000198281E090E0A0E0B0E023C024303105C2
:101540004105510538F481E0898384E090E0A0E012
:10155000B0E017C0203131054105510538F482E073
:10156000898380E190E0A0E0B0E00BC02034310539
:1015700041055105C8F483E0898380E490E0A0E050
:10158000B0E09C01AD01220F331F441F551FC7015E
:10159000B6010E94460C2F3F31054105510509F067
:1015A00028F428838FEF03C080E001C081E0DF9141
:1015B000CF91FF90EF90DF90CF900895FC0184EAE7
:1015C000848384818823ECF78181887F883009F0C7
:1015D0006DC0660F638384E884834115510509F467
:1015E00062C0A22FB32F34E82D914150510994814C
:1015F0009923ECF78181887F883119F42383348320
:1016000020C0883219F4238334831BC0803239F41C
:1016100084E98483848184FDFDCF82E00895803352
:1016200039F484E98483848184FDFDCF83E00895C7
:10163000883339F484E98483848184FDFDCF84E098
:1016400008954115510581F6883141F4238384E9D9
:101650008483848184FDFDCF8FEF0895883241F427
:10166000238384E98483848184FDFDCF8FEF0895F3
:10167000803239F484E98483848184FDFDCF82E063
:101680000895803339F484E98483848184FDFDCF17
:1016900083E00895883349F484E98483848184FD58
:1016A000FDCF84E008958FEF08958FEF0895CF93D5
:1016B000FC0184EA848384818823ECF78181982F5C
:1016C000987E983011F0887F77C0862F880F8383AB
:1016D00084E88483660F616084818823ECF78181CC
:1016E000887F883121F4638384E8848321C0883231
:1016F00021F4638384E884831BC0803239F484E955
:101700008483848184FDFDCF82E056C0803339F428
:1017100084E98483848184FDFDCF83E04DC08833D8
:1017200039F484E98483848184FDFDCF84E044C05E
:1017300084818823ECF78181887F803469F441308B
:10174000510519F484E8848310C084EC8483411526
:10175000510559F48FEF30C08834C9F784E9848388
:10176000848184FDFDCF85E027C0D90160E070E071
:1017700094ECC4E884818823ECF78181887F8035EC
:1017800089F44150510983818D936F5F7F4F4130C0
:10179000510511F4C483EECF94834115510551F7DF
:1017A0008FEF0AC0883541F48381D901A60FB71F96
:1017B0008C9384E8848386E0CF910895CF93DF9360
:1017C000EC01CB01A0E0B0E0880F991FAA1FBB1F5E
:1017D000880F991FAA1FBB1F9C01AD01220F331F49
:1017E000441F551F60E074E284EF90E00E94460CB5
:1017F000215031093D832C8382E0888386E08A83EF
:1018000088E18983DF91CF910895FC01908195FF54
:10181000FDCF668380E00895CF92DF92EF92FF9232
:101820000F931F93CF93DF937C018A01662331F0DE
:10183000C62ED12C1C141D0474F01FC0FA01608147
:101840006623D9F0EA012196C7010E94050C69912F
:101850006111FACF12C0C0E0F801EC0FF11DC7FD15
:10186000FA956081C7010E94050CCF5F8C2F0C2E6A
:10187000000C990B8C159D057CF3DF91CF911F9186
:101880000F91FF90EF90DF90CF900895A1E21A2E74
:10189000AA1BBB1BFD010DC0AA1FBB1FEE1FFF1F14
:1018A000A217B307E407F50720F0A21BB30BE40B64
:1018B000F50B661F771F881F991F1A9469F76095AB
:1018C0007095809590959B01AC01BD01CF01089565
:1018D000AEE0B0E0EEE6FCE00C94290F0D891E8925
:1018E00086E08C831A8309838FEF9FE79E838D8325
:1018F000AE01475E5F4F6F89788DCE0101960E94E1
:101900008A0CEF81F885E00FF11F10822E96E4E03B
:101910000C94450FABE0B0E0E0E9FCE00C941B0F49
:101920006C017B018A01FC0117821682838181FF91
:10193000CCC1CE0101963C01F6019381F70193FDE4
:10194000859193FF81917F01882309F4BAC1853283
:1019500039F493FD859193FF81917F01853229F4BC
:10196000B60190E00E94810EE7CF912C212C312C02
:10197000FFE1F315D8F08B3279F038F4803279F04A
:101980008332A1F4232D20611DC08D3261F080339C
:1019900069F4232D216016C0832D8260382EE32D3B
:1019A000E4603E2E2AC0F32DF8601DC037FC2DC028
:1019B00020ED280F2A3040F08E32B9F436FC81C178
:1019C000232D2064322E19C036FE06C08AE0989E70
:1019D000200D1124922E11C0EAE02E9E200D11241C
:1019E000222EF32DF0623F2E08C08C3621F4832D79
:1019F0008068382E02C0883641F4F70193FD859146
:101A000093FF81917F018111B3CF982F9F7D9554D2
:101A1000933028F40C5F1F4F9FE399830DC08336EA
:101A200031F0833771F0833509F059C021C0F801D6
:101A3000808189830E5F1F4F88248394912C5301EA
:101A400013C02801F2E04F0E511CF801A080B180B4
:101A500036FE03C0692D70E002C06FEF7FEFC50155
:101A60000E94760E4C018201F32DFF773F2E16C0A7
:101A7000280122E0420E511CF801A080B18036FE00
:101A800003C0692D70E002C06FEF7FEFC5010E94B7
:101A90006B0E4C01F32DF0683F2E820133FC1BC00E
:101AA000822D90E088169906B0F4B60180E290E0AD
:101AB0000E94810E2A94F4CFF50137FC859137FE00
:101AC00081915F01B60190E00E94810E21102A945D
:101AD00021E0821A91088114910471F7E8C08436DC
:101AE00011F0893641F5F80137FE07C06081718138
:101AF000828193810C5F1F4F08C060817181072E26
:101B0000000C880B990B0E5F1F4FF32DFF763F2EB5
:101B100097FF09C090958095709561957F4F8F4F85
:101B20009F4FF0683F2E2AE030E0A3010E94BD0ED7
:101B3000882E861845C0853731F4232D2F7EB22E8E
:101B40002AE030E025C0932D997FB92E8F36C1F061
:101B500018F4883579F0B5C0803719F0883721F04E
:101B6000B0C0E92FE061BE2EB4FE0DC0FB2DF460C5
:101B7000BF2E09C034FE0AC0292F2660B22E06C02F
:101B800028E030E005C020E130E002C020E132E092
:101B9000F801B7FE07C060817181828193810C5F7B
:101BA0001F4F06C06081718180E090E00E5F1F4F83
:101BB000A3010E94BD0E882E8618FB2DFF773F2EB5
:101BC00036FE0DC0232D2E7FA22E891458F434FE2C
:101BD0000BC032FC09C0832D8E7EA82E05C0B82C08
:101BE000A32C03C0B82C01C0B92CA4FE0FC0FE0169
:101BF000E80DF11D8081803321F49A2D997EA92E64
:101C000009C0A2FE06C0B394B39404C08A2D86789E
:101C100009F0B394A3FC11C0A0FE06C0B21488F46E
:101C2000280C922C9B180EC0B21460F4B60180E20E
:101C300090E00E94810EB394F7CFB21418F42B18E1
:101C400002C0982C212CA4FE10C0B60180E390E0C5
:101C50000E94810EA2FE17C0A1FC03C088E790E09D
:101C600002C088E590E0B6010CC08A2D867859F054
:101C7000A1FE02C08BE201C080E2A7FC8DE2B601AA
:101C800090E00E94810E891438F4B60180E390E060
:101C90000E94810E9A94F7CF8A94F301E80DF11D0A
:101CA0008081B60190E00E94810E8110F5CF222044
:101CB00009F442CEB60180E290E00E94810E2A949F
:101CC000F6CFF6018681978102C08FEF9FEF2B96AA
:101CD000E2E10C94370FFC01059061507040011057
:101CE000D8F7809590958E0F9F1F0895FC01615045
:101CF000704001900110D8F7809590958E0F9F1F2E
:101D000008950F931F93CF93DF93FB01238121FD50
:101D100003C08FEF9FEF2CC022FF16C04681578172
:101D2000248135814217530744F4A081B1819D017C
:101D30002F5F3F4F318320838C93268137812F5F24
:101D40003F4F3783268314C08B01EC01FB010084D5
:101D5000F185E02D0995892BE1F6D80116968D9134
:101D60009C911797019617969C938E931697CE0188
:101D7000DF91CF911F910F910895FA01AA27283082
:101D800051F1203181F1E8946F936E7F6E5F7F4F48
:101D90008F4F9F4FAF4FB1E03ED0B4E03CD0670FC4
:101DA000781F891F9A1FA11D680F791F8A1F911D17
:101DB000A11D6A0F711D811D911DA11D20D009F467
:101DC00068943F912AE0269F11243019305D3193A9
:101DD000DEF6CF010895462F4770405D4193B3E092
:101DE0000FD0C9F7F6CF462F4F70405D4A3318F039
:101DF000495D31FD4052419302D0A9F7EACFB4E0EA
:101E0000A6959795879577956795BA95C9F70097A1
:101E10006105710508959B01AC010A2E0694579542
:101E2000479537952795BA95C9F7620F731F841F99
:101E3000951FA01D08952F923F924F925F926F922F
:101E40007F928F929F92AF92BF92CF92DF92EF924A
:101E5000FF920F931F93CF93DF93CDB7DEB7CA1BCB
:101E6000DB0B0FB6F894DEBF0FBECDBF09942A88F6
:101E7000398848885F846E847D848C849B84AA849E
:101E8000B984C884DF80EE80FD800C811B81AA812B
:101E9000B981CE0FD11D0FB6F894DEBF0FBECDBFF6
:081EA000ED010895F894FFCF55
:101EA80053544130313320436F6E66696720537451
:101EB800617274696E670D0A0054574920496E694A
:101EC8007469616C697A65640D0A00414141414158
:101ED8004141210D0A0053544130313320436F6E84
:101EE80066696720636F6E7475696E670D0A0052C4
:101EF800656365697665642056616C7565203D206B
:101F080025322E32580A0D00436F6E6669672031FC
:101F18002073656E742E2E2E0A0D00436F6E66694F
:101F28006720322073656E742E2E2E0A0D005573AD
:101F3800657220436F6E6669672073656E742E2E16
:041F48002E0A0D0050
:00000001FF
