:100000000C9486000C94A3000C94A3000C94A30001
:100010000C94A3000C94A3000C94A3000C94A300D4
:100020000C94A3000C94A3000C94A3000C94A300C4
:100030000C94A3000C94A3000C94A3000C94A300B4
:100040000C94A3000C94A3000C94A3000C94A300A4
:100050000C94A3000C94A3000C94A3000C94A30094
:100060000C94A3000C94A3000C94A3000C94A30084
:100070000C94A3000C94A3000C94A3000C94A30074
:100080000C94A3000C94A3000C94A3000C94A30064
:100090000C94A3000C94A3000C94A3000C94A30054
:1000A0000C94A3000C94A3000C94A3000C94A30044
:1000B0000C94A3000C94A3000C94A3000C94A30034
:1000C0000C94A3000C94A3000C94A30041646472EC
:1000D0002E204F666673657420202030202031204A
:1000E00020322020332020342020352020362020AC
:1000F0003720203820203920204120204220204352
:100100002020442020452020460A0D0011241FBE37
:10011000CFEFD8E0DEBFCDBF11E0A0E0B1E0ECEE64
:10012000F1E102C005900D92A436B107D9F721E0A4
:10013000A4E6B1E001C01D92A43BB207E1F70E9422
:1001400043010C94F4080C940000FC018281862B7E
:1001500082838181682B61830895FC012281622B57
:1001600062830895FC0192816095692362830895FA
:100170008F929F92AF92BF92EF92FF920F931F9335
:10018000CF93DF93CDB7DEB72B970FB6F894DEBFD2
:100190000FBECDBF7C01FE013196CE010C961192AF
:1001A000E817F907E1F700E0C7010E944905182F99
:1001B00080ED810F8A3068F4612FC7010E944205EB
:1001C000E1E0F0E0EC0FFD1FE00FF11D10830F5F89
:1001D00043C0183011F01F37A9F40150E1E0F0E0FE
:1001E000EC0FFD1FE00FF11D108268E0C7010E94B7
:1001F000420560E2C7010E94420568E0C7010E9413
:1002000042052AC01D3011F01A3031F5CE01019699
:100210000E94CE054B015C016DE0C7010E944205C2
:100220006AE0C7010E9442050A3071F4CE010196CE
:100230000E94CE054B015C016DE0C7010E944205A2
:100240006AE0C7010E9442058FEF88169806A8064B
:10025000B80609F4A9CF04C00A3009F0A5CFE6CF4B
:10026000C501B4012B960FB6F894DEBF0FBECDBF0B
:10027000DF91CF911F910F91FF90EF90BF90AF90C2
:100280009F908F900895CF93DF93CDB7DEB7C6517F
:10029000D2400FB6F894DEBF0FBECDBF86E1E0E0DE
:1002A000F1E0DE01AF5FBD4F01900D928A95E1F75D
:1002B00060E875E288EC90E00E941B0540E85AE196
:1002C00066E070E08CE490E00E9491040E941103CB
:1002D000182FAE014F5F5D4F66E188EC90E00E9401
:1002E00072051F3F49F0AE014F5F5D4F66E188EC3C
:1002F00090E00E947205F7CF88EC90E00E94B80071
:100300006B017C0160E183E290E00E94B200B701E2
:10031000A60181E10E9460028F3F09F0FFCFBE017C
:100320006F5F7F4F80E092E00E9421048F3F49F091
:10033000AE014F5F5D4F66E188EC90E00E94720570
:10034000F7CF60E183E290E00E94AD00AE014F5F25
:100350005F4F60E072E088EC90E00E943302CCCF07
:100360008F929F92AF92BF92CF92DF92EF92FF92C5
:100370000F931F93CF93DF937C01EB018A010E94BF
:100380004F05C82ED92EC00FD11FDF93CF9389E31D
:1003900091E09F938F93DF92CF920E940A064C2D9B
:1003A0005D2D60E0C7010E9472051F930F938DE3DE
:1003B00091E09F938F93DF92CF920E940A064C2D7B
:1003C0005D2D60E0C7010E9472058E015E01E0E1D3
:1003D000AE0EB11C8DB79EB70C960FB6F8949EBFAB
:1003E0000FBE8DBF0F2EF7E48F2EF1E09F2EF02D64
:1003F00089911F928F939F928F92DF92CF920E944A
:100400000A064C2D5D2D60E0C7010E9472050F9019
:100410000F900F900F900F900F90AC16BD0641F704
:10042000F80161918F0180EE860F803608F06EE250
:10043000C7010E9442050A151B0591F76DE0C7012F
:100440000E9442056AE0C7010E944205DF91CF91F8
:100450001F910F91FF90EF90DF90CF90BF90AF90E2
:100460009F908F900895CF92DF92EF92FF920F931B
:100470001F93CF93DF938C016B017A010E944F058C
:10048000EC01AC0160E08CEC90E00E945205AE0102
:1004900060E0C8010E947205C0E0D0E0AE01B70183
:1004A000C8010E94B0016096CC15DD05B8F3DF915C
:1004B000CF911F910F91FF90EF90DF90CF90089513
:1004C000CF92DF92EF92FF921F93CF93DF9380340E
:1004D00068F5883021F0811104C015E903C017E8E0
:1004E00001C011E06A017B01682F60648CE490E038
:1004F0000E941405C8E1D0E0C701B6010C2E04C06B
:1005000096958795779567950A94D2F78CE490E055
:100510000E9414052897C83F8FEFD80769F7612F0D
:100520008CE490E00E9414058FEF01C081E0DF9120
:10053000CF911F91FF90EF90DF90CF900895CF92D1
:10054000DF92EF92FF920F931F93CF93DF93CDB77C
:10055000DEB7A1970FB6F894DEBF0FBECDBFE82E71
:100560006B0181E2E7E1F1E0DE01119601900D926D
:100570008A95E1F76FEF8CE490E00E941405082F54
:1005800014E608C06FEF8CE490E00E941405082F79
:100590001150B9F10F3FB1F3AE014F5F5F4F61E210
:1005A00088EC90E00E947205F6010083023050F062
:1005B000AE014F5F5F4F61E288EC90E00E947205F0
:1005C000102F1FC0F1E0FE15B0F486010F5F1F4F22
:1005D000EA94EA94F12C82E0E80EF11CEC0CFD1C8C
:1005E0006FEF8CE490E00E941405F80181938F0175
:1005F000EE15FF05A9F76FEF8CE490E00E9414055B
:100600001FEF812FA1960FB6F894DEBF0FBECDBFAE
:10061000DF91CF911F910F91FF90EF90DF90CF90DE
:100620000895CF92DF92EF92FF921F93CF93DF93C3
:10063000CDB7DEB728970FB6F894DEBF0FBECDBF9B
:1006400060E183E290E00E94A5001AE06FEF8CE485
:1006500090E00E9414051150C9F760E183E290E038
:100660000E94B20040E050E0BA0180E00E946002C7
:100670008F3F09F0ADC0BE016F5F7F4F81E00E94E8
:100680009F028F3F09F0A6C08981813009F0A4C084
:1006900060E183E290E00E94AD0060E183E290E0DF
:1006A0000E94B2004AEA51E060E070E088E00E94F7
:1006B00060028F3F09F092C0BE016F5F7F4F85E0FF
:1006C0000E949F02182F60E183E290E00E94AD003B
:1006D000153009F09FC0C12CD12C760189818B7F08
:1006E000813009F07DC01C81113009F07BC060E1D0
:1006F00083E290E00E94B20040E050E0BA018AE359
:100700000E9460028F3F09F06FC0BE016F5F7F4F94
:1007100085E00E949F028F3F09F068C08981813087
:1007200009F080C08B818073803309F061C060E183
:1007300083E290E00E94AD0060E183E290E00E94DD
:10074000B20015E640E050E0BA0187E30E94600283
:100750008F3F09F04FC0BE016F5F7F4F81E00E9465
:100760009F028F3F09F048C0B701A60189E20E94AD
:1007700060028F3F09F042C0BE016F5F7F4F81E092
:100780000E949F028F3FE1F5115009F44BC089810F
:100790008111D8CF40E050E0BA018AE30E946002A4
:1007A0008F3F81F5BE016F5F7F4F85E00E949F0202
:1007B0008F3F51F58981811129C08A81807C803CDD
:1007C00039F560E183E290E00E94AD001FEF2AC09E
:1007D000182F28C0182F26C012E024C0182F22C0BE
:1007E00012E020C015E01EC0182F1CC0182F1AC020
:1007F00015E018C0182F16C0182F14C0182F12C0DB
:10080000182F10C0182F0EC0182F0CC013E00AC0EC
:1008100014E008C01F3F31F4C12CD12C760168943C
:10082000F6F85CCF812F28960FB6F894DEBF0FBE86
:10083000CDBFDF91CF911F91FF90EF90DF90CF90D0
:1008400008958F929F92AF92BF92CF92DF92EF92D4
:10085000FF92CF93DF934C01E62EF72E60E183E207
:1008600090E00E94B2006FEF8CE490E00E941405CB
:10087000C4E608C06FEF8CE490E00E941405C150FC
:1008800009F443C08F3FB1F3811126C06FEF8CE4B0
:1008900090E00E9414058F3FC9F38E3FF9F4A12C1C
:1008A000B12C81149104A104B104D1F0CE2DDF2D1F
:1008B000C12CD12C76016FEF8CE490E00E941405DE
:1008C00089938FEFC81AD80AE80AF80AC814D9041D
:1008D000EA04FB0480F304C0C6E017C0C82F15C0AB
:1008E0006FEF8CE490E00E9414056FEF8CE490E0D1
:1008F0000E9414056FEF8CE490E00E94140560E103
:1009000083E290E00E94AD00CFEF8C2FDF91CF917A
:10091000FF90EF90DF90CF90BF90AF909F908F901F
:1009200008950F931F93CF93DF93CDB7DEB76697EC
:100930000FB6F894DEBF0FBECDBF8C019A01AB019C
:1009400060E074E284EF90E00E94AC0586E1EEE4A2
:10095000F1E0DE01119601900D928A95E1F72230C7
:1009600038F481E0F801818380E5808310E03CC0A9
:10097000243030F4F801118280E5808310E034C027
:10098000283038F481E0F801818380E5808310E02D
:100990002BC0203130F4F801118281E5808310E012
:1009A00023C0203238F481E0F801818382E580831E
:1009B00010E01AC0203478F481E0F801818383E5E7
:1009C0008083AE014F5F5F4F66E188EC90E00E944C
:1009D000720510E009C0222334F0F801118283E58A
:1009E000808310E001C011E060E883E290E00E94A3
:1009F000B20060E883E290E00E94A50060E283E23A
:100A000090E00E94AD0060E283E290E00E94A500C9
:100A1000812F66960FB6F894DEBF0FBECDBFDF9173
:100A2000CF911F910F910895FC01628391819923C9
:100A3000ECF782810895CF93DF93EC01CB01A0E026
:100A4000B0E0880F991FAA1FBB1F880F991FAA1F0C
:100A5000BB1F9C01AD01220F331F441F551F60E0D7
:100A600074E284EF90E00E94AC05215031093D838F
:100A70002C8382E0888386E08A8388E18983DF9102
:100A8000CF910895FC01908195FFFDCF668380E0B2
:100A90000895FC0190819923ECF78681089584E6FE
:100AA00091E0089561110EC0262F30E0FC01E20FA5
:100AB000F31FE491DA01A20FB31FEC936F5FE11112
:100AC000F3CF0EC0FC01DA018FEF860F90E00196A4
:100AD000480F591F84918D933196A417B507D1F70C
:100AE000862F0895CF92DF92EF92FF920F931F937C
:100AF000CF93DF937C018A01662331F0C62ED12C7F
:100B00001C141D0474F01FC0FA0160816623D9F023
:100B1000EA012196C7010E94420569916111FACF4D
:100B200012C0C0E0F801EC0FF11DC7FDFA9560811D
:100B3000C7010E944205CF5F8C2F0C2E000C990B31
:100B40008C159D057CF3DF91CF911F910F91FF9044
:100B5000EF90DF90CF900895A1E21A2EAA1BBB1B45
:100B6000FD010DC0AA1FBB1FEE1FFF1FA217B30779
:100B7000E407F50720F0A21BB30BE40BF50B661F8F
:100B8000771F881F991F1A9469F760957095809553
:100B900090959B01AC01BD01CF0108951F93FC010D
:100BA00099278827BC01E89411911032E9F3193094
:100BB00010F01E30C8F31B3251F01D3249F4689416
:100BC00006C00E94F505610F711D811D911D1191D7
:100BD00010531A30B0F33EF490958095709561955E
:100BE0007F4F8F4F9F4F1F910895592F482F372FB9
:100BF000262F660F771F881F991F660F771F881F84
:100C0000991F620F731F841F951F660F771F881F20
:100C1000991F0895AEE0B0E0E0E1F6E00C94CB0857
:100C20000D891E8986E08C831A8309838FEF9FE7E5
:100C30009E838D83AE01475E5F4F6F89788DCE01B5
:100C400001960E942C06EF81F885E00FF11F1082BB
:100C50002E96E4E00C94E708ABE0B0E0E2E3F6E0C7
:100C60000C94BD086C017B018A01FC01178216827D
:100C7000838181FFCCC1CE0101963C01F6019381B5
:100C8000F70193FD859193FF81917F01882309F4FA
:100C9000BAC1853239F493FD859193FF81917F012B
:100CA000853229F4B60190E00E942308E7CF912C09
:100CB000212C312CFFE1F315D8F08B3279F038F488
:100CC000803279F08332A1F4232D20611DC08D3252
:100CD00061F0803369F4232D216016C0832D82607A
:100CE000382EE32DE4603E2E2AC0F32DF8601DC09F
:100CF00037FC2DC020ED280F2A3040F08E32B9F499
:100D000036FC81C1232D2064322E19C036FE06C068
:100D10008AE0989E200D1124922E11C0EAE02E9EAA
:100D2000200D1124222EF32DF0623F2E08C08C36A8
:100D300021F4832D8068382E02C0883641F4F701F3
:100D400093FD859193FF81917F018111B3CF982FFE
:100D50009F7D9554933028F40C5F1F4F9FE3998338
:100D60000DC0833631F0833771F0833509F059C0F7
:100D700021C0F801808189830E5F1F4F88248394EE
:100D8000912C530113C02801F2E04F0E511CF801C1
:100D9000A080B18036FE03C0692D70E002C06FEF05
:100DA0007FEFC5010E9418084C018201F32DFF77E7
:100DB0003F2E16C0280122E0420E511CF801A080EF
:100DC000B18036FE03C0692D70E002C06FEF7FEF87
:100DD000C5010E940D084C01F32DF0683F2E8201E1
:100DE00033FC1BC0822D90E088169906B0F4B60142
:100DF00080E290E00E9423082A94F4CFF50137FCAA
:100E0000859137FE81915F01B60190E00E94230831
:100E100021102A9421E0821A91088114910471F71B
:100E2000E8C0843611F0893641F5F80137FE07C075
:100E300060817181828193810C5F1F4F08C0608146
:100E40007181072E000C880B990B0E5F1F4FF32D3D
:100E5000FF763F2E97FF09C090958095709561951C
:100E60007F4F8F4F9F4FF0683F2E2AE030E0A30165
:100E70000E945F08882E861845C0853731F4232DDF
:100E80002F7EB22E2AE030E025C0932D997FB92E17
:100E90008F36C1F018F4883579F0B5C0803719F075
:100EA000883721F0B0C0E92FE061BE2EB4FE0DC03E
:100EB000FB2DF460BF2E09C034FE0AC0292F266026
:100EC000B22E06C028E030E005C020E130E002C0CC
:100ED00020E132E0F801B7FE07C0608171818281B4
:100EE00093810C5F1F4F06C06081718180E090E0AC
:100EF0000E5F1F4FA3010E945F08882E8618FB2DEE
:100F0000FF773F2E36FE0DC0232D2E7FA22E891493
:100F100058F434FE0BC032FC09C0832D8E7EA82EFF
:100F200005C0B82CA32C03C0B82C01C0B92CA4FE5A
:100F30000FC0FE01E80DF11D8081803321F49A2D50
:100F4000997EA92E09C0A2FE06C0B394B39404C032
:100F50008A2D867809F0B394A3FC11C0A0FE06C0C8
:100F6000B21488F4280C922C9B180EC0B21460F4B2
:100F7000B60180E290E00E942308B394F7CFB21448
:100F800018F42B1802C0982C212CA4FE10C0B60116
:100F900080E390E00E942308A2FE17C0A1FC03C0DA
:100FA00088E790E002C088E590E0B6010CC08A2D89
:100FB000867859F0A1FE02C08BE201C080E2A7FC56
:100FC0008DE2B60190E00E942308891438F4B6013E
:100FD00080E390E00E9423089A94F7CF8A94F3016B
:100FE000E80DF11D8081B60190E00E942308811078
:100FF000F5CF222009F442CEB60180E290E00E94B3
:1010000023082A94F6CFF6018681978102C08FEFDC
:101010009FEF2B96E2E10C94D908FC0105906150FA
:1010200070400110D8F7809590958E0F9F1F0895FE
:10103000FC016150704001900110D8F780959095A7
:101040008E0F9F1F08950F931F93CF93DF93FB0184
:10105000238121FD03C08FEF9FEF2CC022FF16C01C
:1010600046815781248135814217530744F4A0817A
:10107000B1819D012F5F3F4F318320838C93268167
:1010800037812F5F3F4F3783268314C08B01EC01DC
:10109000FB010084F185E02D0995892BE1F6D8014B
:1010A00016968D919C911797019617969C938E9307
:1010B0001697CE01DF91CF911F910F910895FA01FC
:1010C000AA27283051F1203181F1E8946F936E7F87
:1010D0006E5F7F4F8F4F9F4FAF4FB1E03ED0B4E078
:1010E0003CD0670F781F891F9A1FA11D680F791FB9
:1010F0008A1F911DA11D6A0F711D811D911DA11DCA
:1011000020D009F468943F912AE0269F11243019D9
:10111000305D3193DEF6CF010895462F4770405D74
:101120004193B3E00FD0C9F7F6CF462F4F70405D23
:101130004A3318F0495D31FD4052419302D0A9F77E
:10114000EACFB4E0A6959795879577956795BA9578
:10115000C9F700976105710508959B01AC010A2E3E
:1011600006945795479537952795BA95C9F7620F15
:10117000731F841F951FA01D08952F923F924F92B9
:101180005F926F927F928F929F92AF92BF92CF9217
:10119000DF92EF92FF920F931F93CF93DF93CDB720
:1011A000DEB7CA1BDB0B0FB6F894DEBF0FBECDBF98
:1011B00009942A88398848885F846E847D848C8469
:1011C0009B84AA84B984C884DF80EE80FD800C8172
:1011D0001B81AA81B981CE0FD11D0FB6F894DEBF55
:0C11E0000FBECDBFED010895F894FFCFC5
:1011EC005344204341524420494E495420464149DE
:1011FC004C4544203A280042726F6B656E2077682C
:10120C00696C65206C6F6F70207374696C6C2072E4
:10121C00656164207468697300257020003078253E
:10122C00342E345820200025322E325820004841CC
:10123C005944454E277320434F64652073757820BD
:04124C003A280A0032
:00000001FF
