:100000000C9486000C94A3000C94A3000C94A30001
:100010000C94A3000C94A3000C94A3000C94A300D4
:100020000C94A3000C94A3000C94A3000C94A300C4
:100030000C94A3000C94A3000C94A3000C94A300B4
:100040000C94A3000C94A3000C94A3000C94A300A4
:100050000C94A3000C94A3000C94A3000C94A30094
:100060000C94A3000C94A3000C94A3000C94A30084
:100070000C94A3000C94A3000C94A3000C94A30074
:100080000C94A3000C94A3000C94A3000C94A30064
:100090000C94A3000C94A3000C94A3000C94A30054
:1000A0000C94A3000C94A3000C94A3000C94A30044
:1000B0000C94A3000C94A3000C94A3000C94A30034
:1000C0000C94A3000C94A3000C94A30041646472EC
:1000D0002E204F666673657420202030202031204A
:1000E00020322020332020342020352020362020AC
:1000F0003720203820203920204120204220204352
:100100002020442020452020460A0D0011241FBE37
:10011000CFEFD8E0DEBFCDBF12E0A0E0B1E0EEEF60
:10012000F1E102C005900D92A830B107D9F722E0A5
:10013000A8E0B2E001C01D92A835B207E1F70E9425
:1001400043010C94FD080C940000FC018281862B75
:1001500082838181682B61830895FC012281622B57
:1001600062830895FC0192816095692362830895FA
:100170008F929F92AF92BF92EF92FF920F931F9335
:10018000CF93DF93CDB7DEB72B970FB6F894DEBFD2
:100190000FBECDBF7C01FE013196CE010C961192AF
:1001A000E817F907E1F700E0C7010E945205182F90
:1001B00080ED810F8A3068F4612FC7010E944B05E2
:1001C000E1E0F0E0EC0FFD1FE00FF11D10830F5F89
:1001D00043C0183011F01F37A9F40150E1E0F0E0FE
:1001E000EC0FFD1FE00FF11D108268E0C7010E94B7
:1001F0004B0560E2C7010E944B0568E0C7010E9401
:100200004B052AC01D3011F01A3031F5CE01019690
:100210000E94D7054B015C016DE0C7010E944B05B0
:100220006AE0C7010E944B050A3071F4CE010196C5
:100230000E94D7054B015C016DE0C7010E944B0590
:100240006AE0C7010E944B058FEF88169806A80642
:10025000B80609F4A9CF04C00A3009F0A5CFE6CF4B
:10026000C501B4012B960FB6F894DEBF0FBECDBF0B
:10027000DF91CF911F910F91FF90EF90BF90AF90C2
:100280009F908F900895CF93DF93CDB7DEB7C0577F
:10029000D2400FB6F894DEBF0FBECDBF86E1E0E0DE
:1002A000F1E0DE01AF5FBD4F01900D928A95E1F75D
:1002B00083E2E7E1F1E0DE01A95EBD4F01900D921E
:1002C0008A95E1F78AE1EBE3F1E0DE01A65CBD4F40
:1002D00001900D928A95E1F78DE09AE0CC5ADD4FBE
:1002E00099838883C455D2408BE1E6E5F1E0DE01D5
:1002F000AA5ABD4F01900D928A95E1F760E875E228
:1003000088EC90E00E94240540E85AE166E070E045
:100310008CE490E00E94C4040E9413038F3F49F0D4
:10032000AE014F5F5D4F66E188EC90E00E947B0577
:10033000FFCFAE01495E5D4F63E288EC90E00E9422
:100340007B05AE01465C5D4F6AE188EC90E00E945F
:100350007B0588EC90E00E94B8006B017C01AE0147
:100360004C5A5D4F62E088EC90E00E947B0560E1B2
:1003700083E290E00E94B200B701A60181E10E94F1
:1003800095028F3F09F0FFCFBE016F5F7F4F80E086
:1003900092E00E9454048F3F49F0AE014A5A5D4FEB
:1003A0006BE188EC90E00E947B05FFCF60E183E287
:1003B00090E00E94AD00AE014F5F5F4F60E072E0E1
:1003C00088EC90E00E946802BCCF8F929F92AF921F
:1003D000BF92CF92DF92EF92FF920F931F93CF9332
:1003E000DF937C01EB018A010E945805C82ED92EAB
:1003F000C00FD11FDF93CF9382EF91E09F938F9334
:10040000DF92CF920E9413064C2D5D2D60E0C70154
:100410000E947B051F930F9386EF91E09F938F932C
:10042000DF92CF920E9413064C2D5D2D60E0C70134
:100430000E947B058E015E01E0E1AE0EB11C8DB71E
:100440009EB70C960FB6F8949EBF0FBE8DBF0F2EB1
:10045000F0E08F2EF2E09F2EF02D89911F928F9366
:100460009F928F92DF92CF920E9413064C2D5D2DAA
:1004700060E0C7010E947B050F900F900F900F90D6
:100480000F900F90AC16BD0641F7F80161918F01F6
:1004900080EE860F803608F06EE2C7010E944B05A1
:1004A0000A151B0591F76DE0C7010E944B056AE034
:1004B000C7010E944B05DF91CF911F910F91FF90D3
:1004C000EF90DF90CF90BF90AF909F908F90089566
:1004D000CF92DF92EF92FF920F931F93CF93DF9310
:1004E0008C016B017A010E945805EC01AC0160E0BF
:1004F0008CEC90E00E945B05AE0160E0C8010E94B8
:100500007B05C0E0D0E0AE01B701C8010E94E50163
:100510006096CC15DD05B8F3DF91CF911F910F9157
:10052000FF90EF90DF90CF900895CF92DF92EF92FF
:10053000FF921F93CF93DF93803468F5883021F0CA
:10054000811104C015E903C017E801C011E06A0178
:100550007B01682F60648CE490E00E941D05C8E177
:10056000D0E0C701B6010C2E04C09695879577950B
:1005700067950A94D2F78CE490E00E941D052897B5
:10058000C83F8FEFD80769F7612F8CE490E00E9495
:100590001D058FEF01C081E0DF91CF911F91FF908A
:1005A000EF90DF90CF900895FF920F931F93CF931A
:1005B000DF93F82E8B016FEF8CE490E00E941D0515
:1005C000C4E607C06FEF8CE490E00E941D05C150A7
:1005D00019F18F3FB9F3F80180838230E0F4F1E044
:1005E000FF1590F4E8012196FA94FA948F2D90E08B
:1005F0000296080F191F6FEF8CE490E00E941D0512
:100600008993C017D107B9F76FEF8CE490E00E948F
:100610001D05CFEF01C0C82F8C2FDF91CF911F9107
:100620000F91FF900895CF92DF92EF92FF921F9368
:10063000CF93DF93CDB7DEB7C854D1090FB6F89486
:10064000DEBF0FBECDBF60E183E290E00E94A50057
:100650001AE06FEF8CE490E00E941D051150C9F77D
:1006600060E183E290E00E94B20040E050E0BA0115
:1006700080E00E9495028F3F09F0E5C0BE016F5FE8
:100680007F4F81E00E94D4028F3F09F0DEC0898154
:10069000813009F0DCC060E183E290E00E94AD00AF
:1006A00060E183E290E00E94B2004AEA51E060E03B
:1006B00070E088E00E9495028F3F09F0CAC0BE0139
:1006C0006F5F7F4F85E00E94D402182F60E183E2C4
:1006D00090E00E94AD001530E1F487E2E2E7F1E03E
:1006E000DE01199601900D928A95E1F7FE01F096D0
:1006F00089E1DF011D928A95E9F7AE01475F5F4FFF
:1007000060E488EC90E00E947B05C12CD12C76013E
:1007100020C081E2E2EBF1E0DE01199601900D923A
:100720008A95E1F7FE01BA968FE1DF011D928A9565
:10073000E9F7AE01475F5F4F60E488EC90E00E940C
:100740007B051F3F09F0A0C0C12CD12C7601689415
:10075000F6F889818B7F813009F07DC01C811130D2
:1007600009F07BC060E183E290E00E94B20040E0CB
:1007700050E0BA018AE30E9495028F3F09F06FC0F2
:10078000BE016F5F7F4F85E00E94D4028F3F09F06A
:1007900068C08981813009F077C08B818073803394
:1007A00009F061C060E183E290E00E94AD0060E189
:1007B00083E290E00E94B20015E640E050E0BA010A
:1007C00087E30E9495028F3F09F04FC0BE016F5F23
:1007D0007F4F81E00E94D4028F3F09F048C0B701EB
:1007E000A60189E20E9495028F3F09F042C0BE0136
:1007F0006F5F7F4F81E00E94D4028F3FE1F511507F
:1008000009F442C089818111D8CF40E050E0BA019B
:100810008AE30E9495028F3F81F5BE016F5F7F4F93
:1008200085E00E94D4028F3F51F58981811129C052
:100830008A81807C803C39F560E183E290E00E940F
:10084000AD001FEF21C0182F1FC0182F1DC012E0D0
:100850001BC0182F19C012E017C015E015C0182FC3
:1008600013C0182F11C015E00FC0182F0DC0182F7E
:100870000BC0182F09C0182F07C0182F05C0182F3C
:1008800003C013E001C014E0812FC85BDF4F0FB637
:10089000F894DEBF0FBECDBFDF91CF911F91FF90C7
:1008A000EF90DF90CF9008958F929F92AF92BF927A
:1008B000CF92DF92EF92FF92CF93DF934C01E62E1F
:1008C000F72E60E183E290E00E94B2006FEF8CE4CB
:1008D00090E00E941D05C4E608C06FEF8CE490E034
:1008E0000E941D05C15009F443C08F3FB1F381112F
:1008F00026C06FEF8CE490E00E941D058F3FC9F386
:100900008E3FF9F4A12CB12C81149104A104B104FF
:10091000D1F0CE2DDF2DC12CD12C76016FEF8CE4E0
:1009200090E00E941D0589938FEFC81AD80AE80A43
:10093000F80AC814D904EA04FB0480F304C0C6E032
:1009400017C0C82F15C06FEF8CE490E00E941D0502
:100950006FEF8CE490E00E941D056FEF8CE490E057
:100960000E941D0560E183E290E00E94AD00CFEFA0
:100970008C2FDF91CF91FF90EF90DF90CF90BF90C1
:10098000AF909F908F900895CF93DF93EC019A01E1
:10099000AB0160E074E284EF90E00E94B505223084
:1009A00030F481E0898380E58883C0E02EC0243064
:1009B00028F4198280E58883C0E027C0283030F40D
:1009C00081E0898380E58883C0E01FC0203128F45E
:1009D000198281E58883C0E018C0203230F481E0BC
:1009E000898382E58883C0E010C0203430F481E040
:1009F000898383E58883C0E008C022232CF0198214
:100A000083E58883C0E001C0C1E060E883E290E054
:100A10000E94B20060E883E290E00E94A50060E2DC
:100A200083E290E00E94AD0060E283E290E00E94E9
:100A3000A5008C2FDF91CF910895FC0162839181F5
:100A40009923ECF782810895CF93DF93EC01CB01DA
:100A5000A0E0B0E0880F991FAA1FBB1F880F991F45
:100A6000AA1FBB1F9C01AD01220F331F441F551F3E
:100A700060E074E284EF90E00E94B50521503109F6
:100A80003D832C8382E0888386E08A8388E18983A2
:100A9000DF91CF910895FC01908195FFFDCF668392
:100AA00080E00895FC0190819923ECF786810895F8
:100AB00088E092E0089561110EC0262F30E0FC011D
:100AC000E20FF31FE491DA01A20FB31FEC936F5F03
:100AD000E111F3CF0EC0FC01DA018FEF860F90E039
:100AE0000196480F591F84918D933196A417B5072D
:100AF000D1F7862F0895CF92DF92EF92FF920F9356
:100B00001F93CF93DF937C018A01662331F0C62EB9
:100B1000D12C1C141D0474F01FC0FA0160816623DF
:100B2000D9F0EA012196C7010E944B056991611134
:100B3000FACF12C0C0E0F801EC0FF11DC7FDFA9525
:100B40006081C7010E944B05CF5F8C2F0C2E000CDB
:100B5000990B8C159D057CF3DF91CF911F910F911F
:100B6000FF90EF90DF90CF900895A1E21A2EAA1B7C
:100B7000BB1BFD010DC0AA1FBB1FEE1FFF1FA2174D
:100B8000B307E407F50720F0A21BB30BE40BF50B4A
:100B9000661F771F881F991F1A9469F760957095D3
:100BA000809590959B01AC01BD01CF0108951F93E5
:100BB000FC0199278827BC01E89411911032E9F3D0
:100BC000193010F01E30C8F31B3251F01D3249F4B9
:100BD000689406C00E94FE05610F711D811D911D64
:100BE000119110531A30B0F33EF4909580957095A2
:100BF00061957F4F8F4F9F4F1F910895592F482F19
:100C0000372F262F660F771F881F991F660F771FB4
:100C1000881F991F620F731F841F951F660F771F10
:100C2000881F991F0895AEE0B0E0E9E1F6E00C946A
:100C3000D4080D891E8986E08C831A8309838FEF7F
:100C40009FE79E838D83AE01475E5F4F6F89788DEE
:100C5000CE0101960E943506EF81F885E00FF11F65
:100C600010822E96E4E00C94F008ABE0B0E0EBE3E9
:100C7000F6E00C94C6086C017B018A01FC01178226
:100C80001682838181FFCCC1CE0101963C01F60121
:100C90009381F70193FD859193FF81917F018823D3
:100CA00009F4BAC1853239F493FD859193FF81919E
:100CB0007F01853229F4B60190E00E942C08E7CF2D
:100CC000912C212C312CFFE1F315D8F08B3279F0E7
:100CD00038F4803279F08332A1F4232D20611DC0D5
:100CE0008D3261F0803369F4232D216016C0832D8D
:100CF0008260382EE32DE4603E2E2AC0F32DF8608A
:100D00001DC037FC2DC020ED280F2A3040F08E3258
:100D1000B9F436FC81C1232D2064322E19C036FE71
:100D200006C08AE0989E200D1124922E11C0EAE0A0
:100D30002E9E200D1124222EF32DF0623F2E08C08E
:100D40008C3621F4832D8068382E02C0883641F419
:100D5000F70193FD859193FF81917F018111B3CFBD
:100D6000982F9F7D9554933028F40C5F1F4F9FE37D
:100D700099830DC0833631F0833771F0833509F0E4
:100D800059C021C0F801808189830E5F1F4F8824DC
:100D90008394912C530113C02801F2E04F0E511C93
:100DA000F801A080B18036FE03C0692D70E002C05A
:100DB0006FEF7FEFC5010E9421084C018201F32DE6
:100DC000FF773F2E16C0280122E0420E511CF80189
:100DD000A080B18036FE03C0692D70E002C06FEFC5
:100DE0007FEFC5010E9416084C01F32DF0683F2EDD
:100DF000820133FC1BC0822D90E088169906B0F466
:100E0000B60180E290E00E942C082A94F4CFF5010C
:100E100037FC859137FE81915F01B60190E00E9419
:100E20002C0821102A9421E0821A9108811491043F
:100E300071F7E8C0843611F0893641F5F80137FEC4
:100E400007C060817181828193810C5F1F4F08C050
:100E500060817181072E000C880B990B0E5F1F4F6C
:100E6000F32DFF763F2E97FF09C0909580957095E2
:100E700061957F4F8F4F9F4FF0683F2E2AE030E003
:100E8000A3010E946808882E861845C0853731F472
:100E9000232D2F7EB22E2AE030E025C0932D997F9E
:100EA000B92E8F36C1F018F4883579F0B5C0803787
:100EB00019F0883721F0B0C0E92FE061BE2EB4FEF2
:100EC0000DC0FB2DF460BF2E09C034FE0AC0292FCF
:100ED0002660B22E06C028E030E005C020E130E0F8
:100EE00002C020E132E0F801B7FE07C060817181E5
:100EF000828193810C5F1F4F06C06081718180E009
:100F000090E00E5F1F4FA3010E946808882E86188C
:100F1000FB2DFF773F2E36FE0DC0232D2E7FA22EF8
:100F2000891458F434FE0BC032FC09C0832D8E7E28
:100F3000A82E05C0B82CA32C03C0B82C01C0B92C16
:100F4000A4FE0FC0FE01E80DF11D8081803321F465
:100F50009A2D997EA92E09C0A2FE06C0B394B3941F
:100F600004C08A2D867809F0B394A3FC11C0A0FEBA
:100F700006C0B21488F4280C922C9B180EC0B21430
:100F800060F4B60180E290E00E942C08B394F7CFA1
:100F9000B21418F42B1802C0982C212CA4FE10C0F7
:100FA000B60180E390E00E942C08A2FE17C0A1FCCD
:100FB00003C088E790E002C088E590E0B6010CC06D
:100FC0008A2D867859F0A1FE02C08BE201C080E232
:100FD000A7FC8DE2B60190E00E942C08891438F439
:100FE000B60180E390E00E942C089A94F7CF8A948F
:100FF000F301E80DF11D8081B60190E00E942C08FC
:101000008110F5CF222009F442CEB60180E290E0B3
:101010000E942C082A94F6CFF6018681978102C09F
:101020008FEF9FEF2B96E2E10C94E208FC01059014
:10103000615070400110D8F7809590958E0F9F1FDA
:101040000895FC016150704001900110D8F780951F
:1010500090958E0F9F1F08950F931F93CF93DF934B
:10106000FB01238121FD03C08FEF9FEF2CC022FFE6
:1010700016C046815781248135814217530744F4B5
:10108000A081B1819D012F5F3F4F318320838C93DD
:10109000268137812F5F3F4F3783268314C08B0112
:1010A000EC01FB010084F185E02D0995892BE1F627
:1010B000D80116968D919C911797019617969C933F
:1010C0008E931697CE01DF91CF911F910F910895C6
:1010D000FA01AA27283051F1203181F1E8946F9369
:1010E0006E7F6E5F7F4F8F4F9F4FAF4FB1E03ED00F
:1010F000B4E03CD0670F781F891F9A1FA11D680FAD
:10110000791F8A1F911DA11D6A0F711D811D911DDF
:10111000A11D20D009F468943F912AE0269F112454
:101120003019305D3193DEF6CF010895462F4770B8
:10113000405D4193B3E00FD0C9F7F6CF462F4F7013
:10114000405D4A3318F0495D31FD4052419302D071
:10115000A9F7EACFB4E0A695979587957795679517
:10116000BA95C9F700976105710508959B01AC0117
:101170000A2E06945795479537952795BA95C9F73E
:10118000620F731F841F951FA01D08952F923F9219
:101190004F925F926F927F928F929F92AF92BF9287
:1011A000CF92DF92EF92FF920F931F93CF93DF9333
:1011B000CDB7DEB7CA1BDB0B0FB6F894DEBF0FBE90
:1011C000CDBF09942A88398848885F846E847D84DD
:1011D0008C849B84AA84B984C884DF80EE80FD80DF
:1011E0000C811B81AA81B981CE0FD11D0FB6F89455
:0E11F000DEBF0FBECDBFED010895F894FFCF16
:1011FE005344204341524420494E495420464149CC
:10120E004C45442E0D0A005344204341524420497C
:10121E004E495449414C495A454420535543434540
:10122E00535346554C4C59210D0A000D0A494E5048
:10123E005554204445534952454420534420424C72
:10124E004F434B3A200053442043415244205245D1
:10125E00414420424C4F434B204552524F522E0D8B
:10126E000A00534420636172642076657273696F5D
:10127E006E3A2076312E78202D204C4F5720434148
:10128E005041434954590D0A00000000000000006F
:10129E000000000000000000000000000000000040
:1012AE000000484947482043415041434954592082
:1012BE0053442043415244204445544543544544ED
:1012CE000D0A0000000000000000000000000000F9
:1012DE000000000000000000000000000000000000
:1012EE00000025702000307825342E345820200040
:0812FE0025322E3258200000B9
:00000001FF
