:100000000C9486000C94A3000C94A3000C94A30001
:100010000C94A3000C94A3000C94A3000C94A300D4
:100020000C94A3000C94A3000C94A3000C94A300C4
:100030000C94A3000C94A3000C94A3000C94A300B4
:100040000C94A3000C94A3000C94A3000C94A300A4
:100050000C94A3000C94A3000C94A3000C94A30094
:100060000C94A3000C94A3000C94A3000C94A30084
:100070000C94A3000C94A3000C94A3000C94A30074
:100080000C94A3000C94A3000C94A3000C94A30064
:100090000C94A3000C94A3000C94A3000C94A30054
:1000A0000C94A3000C94A3000C94A3000C94A30044
:1000B0000C94A3000C94A3000C94A3000C94A30034
:1000C0000C94A3000C94A3000C94A30041646472EC
:1000D0002E204F666673657420202030202031204A
:1000E00020322020332020342020352020362020AC
:1000F0003720203820203920204120204220204352
:100100002020442020452020460A0D0011241FBE37
:10011000CFEFD8E0DEBFCDBF11E0A0E0B1E0E0EF6F
:10012000F0E102C005900D92A234B107D9F721E0A9
:10013000A2E4B1E001C01D92A239B207E1F70E942A
:1001400043010C9476080C940000FC018281862BFC
:1001500082838181682B61830895FC012281622B57
:1001600062830895FC0192816095692362830895FA
:100170008F929F92AF92BF92EF92FF920F931F9335
:10018000CF93DF93CDB7DEB72B970FB6F894DEBFD2
:100190000FBECDBF7C01FE013196CE010C961192AF
:1001A000E817F907E1F700E0C7010E94CB04182F18
:1001B00080ED810F8A3068F4612FC7010E94C4046A
:1001C000E1E0F0E0EC0FFD1FE00FF11D10830F5F89
:1001D00043C0183011F01F37A9F40150E1E0F0E0FE
:1001E000EC0FFD1FE00FF11D108268E0C7010E94B7
:1001F000C40460E2C7010E94C40468E0C7010E9411
:10020000C4042AC01D3011F01A3031F5CE01019618
:100210000E9450054B015C016DE0C7010E94C404BF
:100220006AE0C7010E94C4040A3071F4CE0101964D
:100230000E9450054B015C016DE0C7010E94C4049F
:100240006AE0C7010E94C4048FEF88169806A806CA
:10025000B80609F4A9CF04C00A3009F0A5CFE6CF4B
:10026000C501B4012B960FB6F894DEBF0FBECDBF0B
:10027000DF91CF911F910F91FF90EF90BF90AF90C2
:100280009F908F900895CF93DF93CDB7DEB7C6517F
:10029000D2400FB6F894DEBF0FBECDBF86E1E0E0DE
:1002A000F1E0DE01AF5FBD4F01900D928A95E1F75D
:1002B00060E875E288EC90E00E949D0440E85AE115
:1002C00066E070E08CE490E00E9405040E94B402B5
:1002D000182FAE014F5F5D4F66E188EC90E00E9401
:1002E000F4041F3F49F0AE014F5F5D4F66E188ECBB
:1002F00090E00E94F404F7CF88EC90E00E94B800F0
:100300006B017C0160E083E290E00E94B200B701E3
:10031000A60181E10E9458028F3F09F0FFCFBE0184
:100320006F5F7F4F80E092E00E949B038F3F09F058
:10033000FFCF60E083E290E00E94AD00AE014F5F2E
:100340005F4F60E072E088EC90E00E942B02D4CF17
:100350008F929F92AF92BF92CF92DF92EF92FF92D5
:100360000F931F93CF93DF937C01EB018A010E94CF
:10037000D104C82ED92EC00FD11FDF93CF9387E1B0
:1003800091E09F938F93DF92CF920E948C054C2D2A
:100390005D2D60E0C7010E94F4041F930F938BE171
:1003A00091E09F938F93DF92CF920E948C054C2D0A
:1003B0005D2D60E0C7010E94F4048E015E01E0E162
:1003C000AE0EB11C8DB79EB70C960FB6F8949EBFBB
:1003D0000FBE8DBF0F2EF5E28F2EF1E09F2EF02D78
:1003E00089911F928F939F928F92DF92CF920E945A
:1003F0008C054C2D5D2D60E0C7010E94F4040F9028
:100400000F900F900F900F900F90AC16BD0641F714
:10041000F80161918F0180EE860F803608F06EE260
:10042000C7010E94C4040A151B0591F76DE0C701BE
:100430000E94C4046AE0C7010E94C404DF91CF9106
:100440001F910F91FF90EF90DF90CF90BF90AF90F2
:100450009F908F900895CF92DF92EF92FF920F932B
:100460001F93CF93DF938C016B017A010E94D1041B
:10047000EC01AC0160E08CEC90E00E94D404AE0191
:1004800060E0C8010E94F404C0E0D0E0AE01B70112
:10049000C8010E94A8016096CC15DD05B8F3DF9174
:1004A000CF911F910F91FF90EF90DF90CF90089523
:1004B000CF92DF92EF92FF921F93CF93DF9380341E
:1004C00088F5883021F0811104C015E903C017E8D0
:1004D00001C011E06A017B018064682F70E08CE448
:1004E00090E00E948804C8E1D0E0D701C6010C2E3C
:1004F00004C0B695A795979587950A94D2F7682F6B
:1005000070E08CE490E00E9488042897C83F8FEF49
:10051000D80759F7612F70E08CE490E00E948804BE
:100520008FEF01C081E0DF91CF911F91FF90EF909D
:10053000DF90CF900895CF936FEF70E08CE490E060
:100540000E948804982FC4E609C06FEF70E08CE425
:1005500090E00E948804982FC15019F08823ACF7CE
:10056000C92F8C2FCF910895CF92DF92EF92FF92F7
:100570001F93CF93DF93CDB7DEB728970FB6F894CC
:10058000DEBF0FBECDBF60E083E290E00E94A50019
:100590001AE06FEF70E08CE490E00E948804115044
:1005A000C1F760E083E290E00E94B20040E050E0DA
:1005B000BA0180E00E9458028F3F09F08EC0BE0150
:1005C0006F5F7F4F81E00E949B028F3F09F087C0E1
:1005D0008981813009F085C060E083E290E00E946B
:1005E000AD0060E083E290E00E94B2004AEA51E090
:1005F00060E070E088E00E9458028F3F09F073C00D
:10060000BE016F5F7F4F85E00E949B02182F60E064
:1006100083E290E00E94AD00153049F01F3F09F0E1
:100620007BC0C12CD12C76016894F6F803C0C12C94
:10063000D12C760189818B7F813009F056C01C81D5
:10064000113009F054C060E083E290E00E94B200F3
:1006500040E050E0BA018AE30E9458028F3F09F05F
:1006600048C0BE016F5F7F4F85E00E949B028F3FB5
:1006700009F041C08981813009F04EC08B818073BF
:100680008033D9F560E083E290E00E94AD0060E045
:1006900083E290E00E94B20040E050E0BA0187E3BC
:1006A0000E94580215E6BE016F5F7F4F81E00E94F5
:1006B0009B028F3F21F5B701A60189E20E945802F3
:1006C0008F3FF9F4BE016F5F7F4F81E00E949B0274
:1006D0008F3FC9F41150C9F41FC0182F1DC0182F27
:1006E0001BC012E019C0182F17C012E015C015E08A
:1006F00013C0182F11C0182F0FC015E00DC0182FF0
:100700000BC0182F09C0182F07C040E050E0BA01F5
:1007100087E30E945802C7CF812F28960FB6F8941E
:10072000DEBF0FBECDBFDF91CF911F91FF90EF9045
:10073000DF90CF900895DF92EF92FF920F931F9377
:10074000CF93DF938C017B0160E083E290E00E9415
:10075000B2006FEF70E08CE490E00E948804982F64
:10076000C4E60AC06FEF70E08CE490E00E94880459
:10077000982FC15009F440C08823A4F7911120C0DC
:100780006FEF70E08CE490E00E9488048F3FC1F32B
:100790008E3FC1F401151105B9F0C0E0D0E0D12CB5
:1007A0006FEF70E08CE490E00E948804CE0DDF1DB6
:1007B0008883D394CD2DD0E0C017D10788F304C02F
:1007C000C6E01AC0C82F18C06FEF70E08CE490E04C
:1007D0000E9488046FEF70E08CE490E00E9488042F
:1007E0006FEF70E08CE490E00E94880460E083E2A8
:1007F00090E00E94AD00CFEF8C2FDF91CF911F9141
:100800000F91FF90EF90DF9008950F931F93CF9378
:10081000DF93CDB7DEB766970FB6F894DEBF0FBE95
:10082000CDBF8C019A01AB0160E074E284EF90E0EF
:100830000E942E0586E1ECE2F1E0DE0111960190C6
:100840000D928A95E1F7223038F481E0F801818336
:1008500080E5808310E03CC0243030F4F801118240
:1008600080E5808310E034C0283038F481E0F8015E
:10087000818380E5808310E02BC0203130F4F801C3
:10088000118281E5808310E023C0203238F481E0BA
:10089000F801818382E5808310E01AC0203478F467
:1008A00081E0F801818383E58083AE014F5F5F4F74
:1008B00066E188EC90E00E94F40410E009C0222375
:1008C00034F0F801118283E5808310E001C011E06B
:1008D00060E883E290E00E94B20060E883E290E08A
:1008E0000E94A50060E283E290E00E94AD0060E219
:1008F00083E290E00E94A500812F66960FB6F894DF
:10090000DEBF0FBECDBFDF91CF911F910F91089534
:100910000F931F93CF938C01FC016283F801C18177
:100920006C2F88EC90E00E94C404CC23BCF7F80143
:100930008281CF911F910F910895CF93DF93EC01A6
:10094000CB01A0E0B0E0880F991FAA1FBB1F880F42
:10095000991FAA1FBB1F9C01AD01220F331F441F0B
:10096000551F60E074E284EF90E00E942E05215054
:1009700031093D832C8382E0888386E08A8388E185
:100980008983DF91CF910895FC01908195FFFDCF80
:10099000668380E00895FC0190819923ECF78681BD
:1009A000089582E491E0089561110EC0262F30E091
:1009B000FC01E20FF31FE491DA01A20FB31FEC93E5
:1009C0006F5FE111F3CF0EC0FC01DA018FEF860FEC
:1009D00090E00196480F591F84918D933196A4178A
:1009E000B507D1F7862F0895CF92DF92EF92FF924D
:1009F0000F931F93CF93DF937C018A01662331F01D
:100A0000C62ED12C1C141D0474F01FC0FA01608185
:100A10006623D9F0EA012196C7010E94C4046991B6
:100A20006111FACF12C0C0E0F801EC0FF11DC7FD53
:100A3000FA956081C7010E94C404CF5F8C2F0C2EF1
:100A4000000C990B8C159D057CF3DF91CF911F91C4
:100A50000F91FF90EF90DF90CF900895A1E21A2EB2
:100A6000AA1BBB1BFD010DC0AA1FBB1FEE1FFF1F52
:100A7000A217B307E407F50720F0A21BB30BE40BA2
:100A8000F50B661F771F881F991F1A9469F76095E9
:100A90007095809590959B01AC01BD01CF010895A3
:100AA0001F93FC0199278827BC01E894119110320B
:100AB000E9F3193010F01E30C8F31B3251F01D322B
:100AC00049F4689406C00E947705610F711D811D6D
:100AD000911D119110531A30B0F33EF4909580950A
:100AE000709561957F4F8F4F9F4F1F910895592F9C
:100AF000482F372F262F660F771F881F991F660FE5
:100B0000771F881F991F620F731F841F951F660F21
:100B1000771F881F991F0895AEE0B0E0E2E9F5E085
:100B20000C944D080D891E8986E08C831A830983F5
:100B30008FEF9FE79E838D83AE01475E5F4F6F8986
:100B4000788DCE0101960E94AE05EF81F885E00F09
:100B5000F11F10822E96E4E00C946908ABE0B0E03F
:100B6000E4EBF5E00C943F086C017B018A01FC0189
:100B700017821682838181FFCCC1CE0101963C0190
:100B8000F6019381F70193FD859193FF81917F0198
:100B9000882309F4BAC1853239F493FD859193FF16
:100BA00081917F01853229F4B60190E00E94A5076A
:100BB000E7CF912C212C312CFFE1F315D8F08B32AB
:100BC00079F038F4803279F08332A1F4232D20615A
:100BD0001DC08D3261F0803369F4232D216016C071
:100BE000832D8260382EE32DE4603E2E2AC0F32D43
:100BF000F8601DC037FC2DC020ED280F2A3040F0D2
:100C00008E32B9F436FC81C1232D2064322E19C0F6
:100C100036FE06C08AE0989E200D1124922E11C047
:100C2000EAE02E9E200D1124222EF32DF0623F2E9D
:100C300008C08C3621F4832D8068382E02C0883697
:100C400041F4F70193FD859193FF81917F0181111B
:100C5000B3CF982F9F7D9554933028F40C5F1F4F8E
:100C60009FE399830DC0833631F0833771F083356C
:100C700009F059C021C0F801808189830E5F1F4FA0
:100C800088248394912C530113C02801F2E04F0E65
:100C9000511CF801A080B18036FE03C0692D70E0C0
:100CA00002C06FEF7FEFC5010E949A074C018201DD
:100CB000F32DFF773F2E16C0280122E0420E511C73
:100CC000F801A080B18036FE03C0692D70E002C03B
:100CD0006FEF7FEFC5010E948F074C01F32DF06885
:100CE0003F2E820133FC1BC0822D90E088169906AE
:100CF000B0F4B60180E290E00E94A5072A94F4CFF8
:100D0000F50137FC859137FE81915F01B60190E0D6
:100D10000E94A50721102A9421E0821A91088114CB
:100D2000910471F7E8C0843611F0893641F5F80175
:100D300037FE07C060817181828193810C5F1F4FF4
:100D400008C060817181072E000C880B990B0E5F23
:100D50001F4FF32DFF763F2E97FF09C0909580958A
:100D6000709561957F4F8F4F9F4FF0683F2E2AE01F
:100D700030E0A3010E94E107882E861845C0853720
:100D800031F4232D2F7EB22E2AE030E025C0932DA2
:100D9000997FB92E8F36C1F018F4883579F0B5C037
:100DA000803719F0883721F0B0C0E92FE061BE2EFE
:100DB000B4FE0DC0FB2DF460BF2E09C034FE0AC086
:100DC000292F2660B22E06C028E030E005C020E1C1
:100DD00030E002C020E132E0F801B7FE07C06081D8
:100DE0007181828193810C5F1F4F06C06081718188
:100DF00080E090E00E5F1F4FA3010E94E107882E64
:100E00008618FB2DFF773F2E36FE0DC0232D2E7F3B
:100E1000A22E891458F434FE0BC032FC09C0832D75
:100E20008E7EA82E05C0B82CA32C03C0B82C01C000
:100E3000B92CA4FE0FC0FE01E80DF11D80818033A6
:100E400021F49A2D997EA92E09C0A2FE06C0B39462
:100E5000B39404C08A2D867809F0B394A3FC11C022
:100E6000A0FE06C0B21488F4280C922C9B180EC069
:100E7000B21460F4B60180E290E00E94A507B3943A
:100E8000F7CFB21418F42B1802C0982C212CA4FE12
:100E900010C0B60180E390E00E94A507A2FE17C033
:100EA000A1FC03C088E790E002C088E590E0B601AD
:100EB0000CC08A2D867859F0A1FE02C08BE201C0D9
:100EC00080E2A7FC8DE2B60190E00E94A50789149C
:100ED00038F4B60180E390E00E94A5079A94F7CF1A
:100EE0008A94F301E80DF11D8081B60190E00E9423
:100EF000A5078110F5CF222009F442CEB60180E289
:100F000090E00E94A5072A94F6CFF601868197818A
:100F100002C08FEF9FEF2B96E2E10C945B08FC017F
:100F20000590615070400110D8F7809590958E0F14
:100F30009F1F0895FC016150704001900110D8F787
:100F4000809590958E0F9F1F08950F931F93CF93B9
:100F5000DF93FB01238121FD03C08FEF9FEF2CC0A6
:100F600022FF16C0468157812481358142175307DD
:100F700044F4A081B1819D012F5F3F4F31832083D5
:100F80008C93268137812F5F3F4F3783268314C090
:100F90008B01EC01FB010084F185E02D0995892B83
:100FA000E1F6D80116968D919C91179701961796A8
:100FB0009C938E931697CE01DF91CF911F910F9145
:100FC0000895FA01AA27283051F1203181F1E894DF
:100FD0006F936E7F6E5F7F4F8F4F9F4FAF4FB1E02C
:100FE0003ED0B4E03CD0670F781F891F9A1FA11D27
:100FF000680F791F8A1F911DA11D6A0F711D811D28
:10100000911DA11D20D009F468943F912AE0269FEC
:1010100011243019305D3193DEF6CF010895462F4B
:101020004770405D4193B3E00FD0C9F7F6CF462F2C
:101030004F70405D4A3318F0495D31FD4052419395
:1010400002D0A9F7EACFB4E0A69597958795779552
:101050006795BA95C9F700976105710508959B01D9
:10106000AC010A2E06945795479537952795BA9562
:10107000C9F7620F731F841F951FA01D08952F923B
:101080003F924F925F926F927F928F929F92AF9218
:10109000BF92CF92DF92EF92FF920F931F93CF9365
:1010A000DF93CDB7DEB7CA1BDB0B0FB6F894DEBFFC
:1010B0000FBECDBF09942A88398848885F846E8422
:1010C0007D848C849B84AA84B984C884DF80EE806C
:1010D000FD800C811B81AA81B981CE0FD11D0FB675
:1010E000F894DEBF0FBECDBFED010895F894FFCF99
:1010F0005344204341524420494E495420464149DB
:101100004C4544203A280025702000307825342EA4
:10111000345820200025322E3258200048415944AE
:10112000454E277320434F646520737578203A2815
:021130000A00B3
:00000001FF
