S01600006578706572696D656E745F6F6E652E737265632C
S11300000C9482000C949F000C949F000C949F000D
S11300100C949F000C949F000C949F000C949F00E0
S11300200C949F000C949F000C949F000C949F00D0
S11300300C949F000C949F000C949F000C949F00C0
S11300400C949F000C949F000C949F000C949F00B0
S11300500C949F000C949F000C949F000C949F00A0
S11300600C949F000C949F000C949F000C949F0090
S11300700C949F000C949F000C949F000C949F0080
S11300800C949F000C949F000C949F000C949F0070
S11300900C949F000C949F000C949F000C949F0060
S11300A00C949F000C949F000C949F000C949F0050
S11300B00C949F000C949F000C949F000C949F0040
S11300C00C949F000C949F000C949F0041646472F4
S11300D02E203020203120203220203320203420B4
S11300E02035202036202037202038202039202099
S11300F04120204220204320204420204520204627
S11301000A0D000011241FBECFEFD8E0DEBFCDBF23
S113011011E0A0E0B1E0E8E8FAE002C005900D9239
S1130120AC33B107D9F721E0ACE3B1E001C01D92D3
S1130130AC38B207E1F70E94A1000C9442050C947C
S11301400000CF93DF93CDB7DEB7E1970FB6F894F5
S1130150DEBF0FBECDBF60E886E290E00E940201E0
S113016060E886E290E00E94FF0060E875E288ECB7
S113017090E00E94A20187E0E0E0F1E0DE01119648
S113018001900D928A95E1F70E94D9019987888799
S1130190AE01485F5F4F67E0CE0101960E94DC012B
S11301A0AE014F5F5F4F67E088EC90E00E94FC0176
S11301B087E2E8E0F1E0DE011A9601900D928A955B
S11301C0E1F719AAAE01465F5F4F67E270E088EC81
S11301D090E00E94750185E5682F88EC90E00E940C
S11301E0CC012FEF87EA91E6215080409040E1F75F
S11301F000C0000088EC90E00E94D301EDCFFC0128
S113020061830895FC012281622B628308958F9299
S11302109F92AF92BF92CF92DF92EF92FF920F9391
S11302201F93CF93DF937C01EB010E94D901C82E69
S1130230D92EDF93CF9380E391E09F938F93DF9246
S1130240CF920E9458024C2D5D2D60E0C7010E94A0
S1130250FC018E015E01F0E1AF0EB11C0F900F9016
S11302600F900F900F900F900F2EF4E38F2EF1E06C
S11302709F2EF02D89911F928F939F928F92DF92E0
S1130280CF920E9458024C2D5D2D60E0C7010E9460
S1130290FC010F900F900F900F900F900F90AC16E1
S11302A0BD0641F7F80161918F0180EE860F80361B
S11302B008F06EE2C7010E94CC010A151B0591F7F4
S11302C06DE0C7010E94CC016AE0C7010E94CC0125
S11302D0DF91CF911F910F91FF90EF90DF90CF901E
S11302E0BF90AF909F908F900895CF92DF92EF923E
S11302F0FF920F931F93CF93DF937C018B016A01CD
S11303000E94D901EC01AC0160E08CEC90E00E9409
S1130310DC01AE0160E0C7010E94FC01E6010C0DA6
S11303201D1DBE01C7010E9407016096C017D107B9
S1130330C0F3DF91CF911F910F91FF90EF90DF9069
S1130340CF900895CF93DF93EC01CB01A0E0B0E010
S1130350880F991FAA1FBB1F880F991FAA1FBB1FB5
S11303609C01AD01220F331F441F551F220F331F61
S1130370441F551F60E074E284EF90E00E9436024F
S1130380215031093D832C83188283E08A838CE1D8
S11303908983DF91CF910895FC01908195FFFDCF72
S11303A0668380E00895FC0190819923ECF78681AF
S11303B008958CE391E0089561110EC0262F30E07A
S11303C0FC01E20FF31FE491DA01A20FB31FEC93D7
S11303D06F5FE111F3CF0EC0FC01DA018FEF860FDE
S11303E090E00196480F591F84918D933196A4177C
S11303F0B507D1F7862F0895CF92DF92EF92FF923F
S11304000F931F93CF93DF937C018A01662331F00E
S1130410C62ED12C1C141D0474F01FC0FA01608177
S11304206623D9F0EA012196C7010E94CC016991A3
S11304306111FACF12C0C0E0F801EC0FF11DC7FD45
S1130440FA956081C7010E94CC01CF5F8C2F0C2EDE
S1130450000C990B8C159D057CF3DF91CF911F91B6
S11304600F91FF90EF90DF90CF900895A1E21A2EA4
S1130470AA1BBB1BFD010DC0AA1FBB1FEE1FFF1F44
S1130480A217B307E407F50720F0A21BB30BE40B94
S1130490F50B661F771F881F991F1A9469F76095DB
S11304A07095809590959B01AC01BD01CF01089595
S11304B0AEE0B0E0EEE5F2E00C9419050D891E897A
S11304C086E08C831A8309838FEF9FE79E838D8355
S11304D0AE01475E5F4F6F89788DCE0101960E9411
S11304E07A02EF81F885E00FF11F10822E96E4E086
S11304F00C943505ABE0B0E0E0E8F2E00C940B05B9
S11305006C017B018A01FC0117821682838181FFC1
S1130510CCC1CE0101963C01F6019381F70193FD14
S1130520859193FF81917F01882309F4BAC18532B3
S113053039F493FD859193FF81917F01853229F4EC
S1130540B60190E00E947104E7CF912C212C312C4C
S1130550FFE1F315D8F08B3279F038F4803279F07A
S11305608332A1F4232D20611DC08D3261F08033CC
S113057069F4232D216016C0832D8260382EE32D6B
S1130580E4603E2E2AC0F32DF8601DC037FC2DC058
S113059020ED280F2A3040F08E32B9F436FC81C1A8
S11305A0232D2064322E19C036FE06C08AE0989EA0
S11305B0200D1124922E11C0EAE02E9E200D11244C
S11305C0222EF32DF0623F2E08C08C3621F4832DA9
S11305D08068382E02C0883641F4F70193FD859176
S11305E093FF81917F018111B3CF982F9F7D955403
S11305F0933028F40C5F1F4F9FE399830DC083361B
S113060031F0833771F0833509F059C021C0F80106
S1130610808189830E5F1F4F88248394912C53011A
S113062013C02801F2E04F0E511CF801A080B180E4
S113063036FE03C0692D70E002C06FEF7FEFC50185
S11306400E9466044C018201F32DFF773F2E16C0F1
S1130650280122E0420E511CF801A080B18036FE30
S113066003C0692D70E002C06FEF7FEFC5010E94E7
S11306705B044C01F32DF0683F2E820133FC1BC058
S1130680822D90E088169906B0F4B60180E290E0DD
S11306900E9471042A94F4CFF50137FC859137FE4A
S11306A081915F01B60190E00E94710421102A94A7
S11306B021E0821A91088114910471F7E8C084360C
S11306C011F0893641F5F80137FE07C06081718168
S11306D0828193810C5F1F4F08C060817181072E56
S11306E0000C880B990B0E5F1F4FF32DFF763F2EE6
S11306F097FF09C090958095709561957F4F8F4FB6
S11307009F4FF0683F2E2AE030E0A3010E94AD0421
S1130710882E861845C0853731F4232D2F7EB22EBE
S11307202AE030E025C0932D997FB92E8F36C1F091
S113073018F4883579F0B5C0803719F0883721F07E
S1130740B0C0E92FE061BE2EB4FE0DC0FB2DF460F5
S1130750BF2E09C034FE0AC0292F2660B22E06C05F
S113076028E030E005C020E130E002C020E132E0C2
S1130770F801B7FE07C060817181828193810C5FAB
S11307801F4F06C06081718180E090E00E5F1F4FB3
S1130790A3010E94AD04882E8618FB2DFF773F2EFF
S11307A036FE0DC0232D2E7FA22E891458F434FE5C
S11307B00BC032FC09C0832D8E7EA82E05C0B82C38
S11307C0A32C03C0B82C01C0B92CA4FE0FC0FE0199
S11307D0E80DF11D8081803321F49A2D997EA92E94
S11307E009C0A2FE06C0B394B39404C08A2D8678CF
S11307F009F0B394A3FC11C0A0FE06C0B21488F49F
S1130800280C922C9B180EC0B21460F4B60180E23E
S113081090E00E947104B394F7CFB21418F42B182B
S113082002C0982C212CA4FE10C0B60180E390E0F5
S11308300E947104A2FE17C0A1FC03C088E790E0E7
S113084002C088E590E0B6010CC08A2D867859F084
S1130850A1FE02C08BE201C080E2A7FC8DE2B601DA
S113086090E00E947104891438F4B60180E390E0AA
S11308700E9471049A94F7CF8A94F301E80DF11D54
S11308808081B60190E00E9471048110F5CF22208E
S113089009F442CEB60180E290E00E9471042A94E9
S11308A0F6CFF6018681978102C08FEF9FEF2B96DA
S11308B0E2E10C942705FC010590615070400110A1
S11308C0D8F7809590958E0F9F1F0895FC01615075
S11308D0704001900110D8F7809590958E0F9F1F5E
S11308E008950F931F93CF93DF93FB01238121FD81
S11308F003C08FEF9FEF2CC022FF16C046815781A3
S1130900248135814217530744F4A081B1819D01AC
S11309102F5F3F4F318320838C93268137812F5F54
S11309203F4F3783268314C08B01EC01FB01008405
S1130930F185E02D0995892BE1F6D80116968D9164
S11309409C911797019617969C938E931697CE01B8
S1130950DF91CF911F910F910895FA01AA272830B2
S113096051F1203181F1E8946F936E7F6E5F7F4F78
S11309708F4F9F4FAF4FB1E03ED0B4E03CD0670FF4
S1130980781F891F9A1FA11D680F791F8A1F911D47
S1130990A11D6A0F711D811D911DA11D20D009F497
S11309A068943F912AE0269F11243019305D3193D9
S11309B0DEF6CF010895462F4770405D4193B3E0C2
S11309C00FD0C9F7F6CF462F4F70405D4A3318F069
S11309D0495D31FD4052419302D0A9F7EACFB4E01A
S11309E0A6959795879577956795BA95C9F70097D2
S11309F06105710508959B01AC010A2E0694579573
S1130A00479537952795BA95C9F7620F731F841FC9
S1130A10951FA01D08952F923F924F925F926F925F
S1130A207F928F929F92AF92BF92CF92DF92EF927A
S1130A30FF920F931F93CF93DF93CDB7DEB7CA1BFB
S1130A40DB0B0FB6F894DEBF0FBECDBF09942A8826
S1130A50398848885F846E847D848C849B84AA84CE
S1130A60B984C884DF80EE80FD800C811B81AA815B
S1130A70B981CE0FD11D0FB6F894DEBF0FBECDBF26
S10B0A80ED010895F894FFCF85
S1130A886D656D65696E67004D696B656C20616E97
S1130A98642048617964656E2C204265737420462D
S1130AA87269656E647320466F72657665720000BC
S10F0AB82570200025322E32582000004A
S9030000FC
