:100000000C94F1000C940E010C940E010C940E0152
:100010000C940E010C940E010C940E010C940E0124
:100020000C940E010C940E010C940E010C940E0114
:100030000C940E010C940E010C940E010C940E0104
:100040000C940E010C940E010C940E010C940E01F4
:100050000C940E010C940E010C940E010C940E01E4
:100060000C940E010C940E010C940E010C940E01D4
:100070000C940E010C940E010C940E010C940E01C4
:100080000C940E010C940E010C940E010C940E01B4
:100090000C940E010C940E010C940E010C940E01A4
:1000A0000C940E010C940E010C940E010C940E0194
:1000B0000C940E010C940E010C940E010C940E0184
:1000C0000C940E010C940E010C940E01426C6F63A3
:1000D0006B2073697A652073657420746F203531E5
:1000E000322062797465730A0D004869676820439D
:1000F000617061636974792043617264206465741E
:1001000065637465642E0A0D005374616E646172D8
:100110006420436170616369747920436172642073
:1001200064657465637465642E0A0D0056657273A8
:10013000696F6E20322053442043617264206465ED
:100140007465637465642E0A0D0056657273696F79
:100150006E203120534420436172642064657465CD
:10016000637465642E0A0D00526573706F6E73655B
:10017000203D200041434D4434312073656E74208E
:100180002E2E2E2000434D4435382073656E74208A
:100190002E2E2E2000434D4431362073656E742080
:1001A0002E2E2E2000434D44382073656E74202E71
:1001B0002E2E2000434D44302073656E74202E2E69
:1001C0002E20005344204361726420496E69746993
:1001D000616C697A6174696F6E202E2E2E200A0D73
:1001E000000011241FBECFEFD8E0DEBFCDBF11E06D
:1001F000A0E0B1E0EAE6FBE102C005900D92A63274
:10020000B107D9F725E0A6E2B1E001C01D92AF38F1
:10021000B207E1F70E94C9030C94B30D0C940000DF
:10022000FC012181622B61830895FC012281622BF4
:1002300062830895FC019281609569236283089529
:1002400087E791E008952F923F924F925F926F92CD
:100250007F928F929F92AF92BF92CF92DF92EF9256
:10026000FF920F931F93CF93DF93CDB7DEB72C97F9
:100270000FB6F894DEBF0FBECDBF2B013C015A83F1
:1002800049830E941C0A282E9A8780917801823027
:1002900069F42091890130918A0140918B0150913C
:1002A0008C012B833C834D835E830AC08091770150
:1002B000282F30E040E050E02B833C834D835E8369
:1002C00040917B0150917C0129813A81C301B201A7
:1002D0000E941B04882331F0A12CB12CEBC0812C8F
:1002E000912C06C073016201A12CB12C812C912CA0
:1002F00069817A81C4010E947402382E35EE831719
:1003000009F4CCC0882309F4C0C0A401455F5F4F45
:1003100058874F8369817A81CA010E947402898754
:100320008E7009F0A8C05FEFA51AB50ABF92AF9210
:1003300080E091E09F938F93BA85BF932F920E94A4
:10034000C90A422D5A8560E088EC90E00E943F0A7D
:100350009401285F3F4F0F900F900F900F900F90D8
:100360000F9084013C872B8769817A81C8010E94A4
:100370007402682F88EC90E00E94150A0F5F1F4FEF
:100380004B855C854017510779F7598554FF26C086
:100390000F81188569817A818B859C850E94740202
:1003A000682F88EC90E00E94150AAB85BC851196F9
:1003B000BC87AB870A171B0769F788E0E6E0F1E026
:1003C000A22DBA8501900D928A95E1F7422D5A85AA
:1003D00060E088EC90E00E943F0A4DC06EE288EC3D
:1003E00090E00E94150A0F81188569817A818B85BA
:1003F0009C850E947402682F88EC90E00E94150A88
:100400004B855C854F5F5F4F5C874B8704171507F3
:1004100061F76DE088EC90E00E94150A6AE088ECD4
:1004200090E00E94150A27C05FEFC51AD50AE50AB9
:10043000F50AD701C60184199509A609B7092B81C8
:100440003C814D815E8182179307A407B50768F44C
:1004500040917B0150917C0129813A81C701B6010D
:100460000E941B04811124C003C06894B7F822C005
:10047000311035CF1FC030E2830E911C4FEF841630
:1004800041E0940608F434CFCFCF50E2850E911CA2
:100490008FEF881681E0980638F60CC090E2890E3E
:1004A000911CAFEF8A16A1E09A0608F421CFBCCFC9
:1004B000A12CB12CC5012C960FB6F894DEBF0FBE4F
:1004C000CDBFDF91CF911F910F91FF90EF90DF9003
:1004D000CF90BF90AF909F908F907F906F905F90E4
:1004E0004F903F902F900895860F971FFC018081B9
:1004F00008954F925F926F927F928F929F92AF92E8
:10050000BF92CF92DF92EF92FF920F931F93CF9300
:10051000DF9300D000D000D0CDB7DEB79A838983B7
:100520000E94200190938E0180938D01BE016F5F28
:100530007F4F80E090E00E94E004811113C1E981C7
:10054000FA8180818D7F893E39F0EA53FE4FC08069
:10055000D12CE12CF12C03C0C12CD12C7601BE0191
:100560006F5F7F4FC6010E94E0048111FBC0E981EB
:10057000FA8180818D7F893E09F0F3C0A0918D01C1
:10058000B0918E01838590E015969C938E9314977D
:1005900085858C9300918D0110918E01D801149660
:1005A0006D917C911597CB01815E9D4F0E94790AD8
:1005B0002B01612C712CF801428A538A648A758A56
:1005C000E981FA818688882049F0282D30E040E0D2
:1005D00050E02B833C834D835E8309C084A0882D2B
:1005E00090E0A0E0B0E08B839C83AD83BE83638901
:1005F000662329F0862E912CA12CB12C05C060A178
:10060000862E912CA12CB12CA089B0E02B813C81AD
:100610004D815E810E94AF0A2685420E511C611CED
:10062000711CDC01CB01840D951DA61DB71DA50114
:100630009401281B390B4A0B5B0BCA01B901D80185
:100640002C9130E040E050E00E948D0A253FBFE051
:100650003B074105510520F482E0F80181830DC07C
:10066000253F3F4F4105510528F481E0D8011196FF
:100670008C9303C084E0F8018183E0918D01F091B7
:100680008E0109811A81D8011E968C91A7019601CD
:10069000280F311D411D511D26873787408B518BF7
:1006A000D8011E962C9182899389A489B589820FDD
:1006B000911DA11DB11D2C013D014C0C5D1C6E1C3A
:1006C0007F1CD80150968C91A82FB0E02B813C81E3
:1006D0004D815E810E94AF0A460E571E681E791E2C
:1006E000428653866486758621812130F1F4D801D3
:1006F00050968C91A82FB0E02B813C814D815E817A
:100700000E94AF0AD8011E962C91C20ED11CE11C8A
:10071000F11CDC01CB018C0D9D1DAE1DBF1D868320
:100720009783A087B1878FEF1DC0D8019C962C912D
:1007300030E0225031094081429F8001439F100DDB
:100740001124012E000C220B330BD301C201800FA8
:10075000911FA21FB31F86839783A087B1878FEF56
:1007600001C08CEC26960FB6F894DEBF0FBECDBF4D
:10077000DF91CF911F910F91FF90EF90DF90CF907D
:10078000BF90AF909F908F907F906F905F904F90B1
:1007900008950E942001EC010E941C0A60EC80E296
:1007A00090E00E94150160EC80E290E00E94100150
:1007B00069E183E290E00E94150169E183E290E043
:1007C0000E94100160E886E290E00E94150160E856
:1007D00086E290E00E94100160E18CE290E00E94CD
:1007E000150160E18CE290E00E94100140E85AE1BE
:1007F00066E070E08CE490E00E94600960E875E2D9
:1008000088EC90E00E94EE090E943B0540E854E825
:100810006EE170E08CE490E00E9460098FE893E064
:100820000E9479026E817F81888599854FE853E027
:100830000E942301FFCFBF92CF92DF92EF92FF92EF
:100840000F931F93CF93DF936B017C01EA01890122
:100850000E945D09B82E60E183E290E00E941A01D7
:10086000B701A60104C0440F551F661F771FBA9435
:10087000D2F781E10E945704F82E60E183E290E014
:100880000E941501F11008C0B801CE010E94E004D9
:10089000882319F080EF01C080EFDF91CF911F9185
:1008A0000F91FF90EF90DF90CF90BF900895CF927F
:1008B000DF92EF92FF92CF938034A0F56A017B0123
:1008C000C82F682F60648CE490E00E94E7096F2DC8
:1008D0007727882799278CE490E00E94E7096E2DFE
:1008E0008CE490E00E94E709EE24FF2499278F2DE5
:1008F0007E2D6D2D8CE490E00E94E7096C2D8CE438
:1009000090E00E94E709CC2321F0C83021F061E09B
:1009100003C065E901C067E88CE490E00E94E70944
:1009200080E001C082E8CF91FF90EF90DF90CF9000
:100930000895EF92FF920F931F93CF93DF93D82FD9
:100940008B01C0E06FEF8CE490E00E94E709CF5F7D
:100950008F3F21F4C111F6CFC1E825C0CC23F1F0BF
:10096000F80180838230E0F4D230E0F07801FFEFCC
:10097000EF1AFF0A8EEF8D0F90E00296E801C80F84
:10098000D91F6FEF8CE490E00E94E709F701819393
:100990007F01EC17FD07A9F7C0E005C0C1E803C05F
:1009A000C3E801C0C0E06FEF8CE490E00E94E7096B
:1009B0008C2FDF91CF911F910F91FF90EF900895B1
:1009C000EF92FF920F931F93CF93DF938C017B01E4
:1009D000C0E0D0E06FEF8CE490E00E94E709219640
:1009E000882324F42097B1F7C1E838C0CD2B79F1E2
:1009F00081112FC0C0E0D0E06FEF8CE490E00E9446
:100A0000E70921968F3F21F42097B1F7C1E826C06E
:100A1000CD2B09F18E3F09F50115110561F0E701B4
:100A20000E0D1F1D6FEF8CE490E00E94E709899383
:100A3000C017D107B9F76FEF8CE490E00E94E70987
:100A40006FEF8CE490E00E94E709C0E007C0C1E8C6
:100A500005C0C3E803C0C1E801C0C4E86FEF8CE47F
:100A600090E00E94E7098C2FDF91CF911F910F91A9
:100A7000FF90EF9008954F925F926F927F929F92B6
:100A8000AF92BF92CF92DF92EF92FF920F931F939C
:100A9000CF93DF93CDB7DEB728970FB6F894DEBFBC
:100AA0000FBECDBF0E941C0AE82E992E8FEF8093B7
:100AB00026014E2D592F60E083EC91E00E941F0A21
:100AC0004E2D592D60E088EC90E00E943F0A68E0CE
:100AD00083E290E00E941A014E2D592D60E084EBD4
:100AE00091E00E941F0A4E2D592D60E088EC90E0A5
:100AF0000E943F0AC12CD12C0F2EFEE0AF2EF1E058
:100B0000BF2EF02D60E183E290E00E94150160E1CC
:100B100083E290E00E9410010AE010E06FEF8CE4A5
:100B200090E00E94E70901501109C1F760E886E2F0
:100B300090E00E941A0160E183E290E00E941A01B5
:100B400040E050E0BA0180E00E945704F82E811185
:100B500036C0BE016F5F7F4F81E00E949904F82E7E
:100B600060E183E290E00E94150168E083E290E09A
:100B70000E9415014E2D592D60E088E691E00E94FB
:100B80001F0A4E2D592D60E088EC90E00E943F0A2C
:100B900089811F928F93BF92AF929F92EF920E9492
:100BA000C90A4E2D592D60E088EC90E00E943F0A62
:100BB0000F900F900F900F900F900F900FC060E16B
:100BC00083E290E00E94150168E083E290E00E94D9
:100BD000150160E880E290E00E941A01898181306D
:100BE00009F40BC360E183E290E00E941A0102E184
:100BF00012E06FEF8CE490E00E94E70901501109C8
:100C0000C1F760E183E290E00E9415018FEFC81AFE
:100C1000D80A8981813051F0EAE0CE16D10409F07A
:100C200071CF0F2EF3E8FF2EF02D11C3FAE0CF168F
:100C3000D10409F0E6C2DAC268E083E290E00E94E3
:100C40001A014E2D592D60E085EA91E00E941F0A9D
:100C50004E2D592D60E088EC90E00E943F0A60E143
:100C600083E290E00E941A014AEA51E060E070E0FD
:100C700088E00E945704F82E811156C0BE016F5FB4
:100C80007F4F85E00E949904F82E60E183E290E0B6
:100C90000E94150168E083E290E00E9415014E2D4C
:100CA000592D60E088E691E00E941F0A4E2D592DD3
:100CB00060E088EC90E00E943F0A8E010F5F1F4FBA
:100CC0005E0186E0A80EB11C0F2EF6E1CF2EF1E0FA
:100CD000DF2EF02DF80181918F011F928F93DF920B
:100CE000CF929F92EF920E94C90A4E2D592D60E03B
:100CF00088EC90E00E943F0A0F900F900F900F90A9
:100D00000F900F90A016B10629F76DE088EC90E0E7
:100D10000E94150A6AE088EC90E00E94150A8D8115
:100D20008A3A09F0A2C210C060E183E290E00E941A
:100D3000150168E083E290E00E94150160E880E21E
:100D400090E00E941A0102C0FF2019F1F2E8FF12A0
:100D50007EC289E0809326014E2D592D60E08AE401
:100D600091E00E941F0A4E2D592D60E088EC90E022
:100D70000E943F0A4E2D592D60E089E091E00E94CB
:100D80001F0A4E2D592D60E088EC90E00E943F0A2A
:100D90003BC282E0809326014E2D592D60E08CE20B
:100DA00091E00E941F0A4E2D592D60E088EC90E0E2
:100DB0000E943F0A29C2BE016F5F7F4F85E00E94FB
:100DC0009904F82E60E183E290E00E94150168E04A
:100DD00083E290E00E9415014E2D592D60E088E6D7
:100DE00091E00E941F0A4E2D592D60E088EC90E0A2
:100DF0000E943F0A8E010F5F1F4F5E0186E0A80E22
:100E0000B11C0F2EF6E1CF2EF1E0DF2EF02DF80110
:100E100081918F011F928F93DF92CF929F92EF92D9
:100E20000E94C90A4E2D592D60E088EC90E00E9486
:100E30003F0A0F900F900F900F900F900F90A016F9
:100E4000B10629F76DE088EC90E00E94150A6AE08F
:100E500088EC90E00E94150A8B818C7F8C3F09F012
:100E600011C210C060E183E290E00E94150168E0C9
:100E700083E290E00E94150160E880E290E00E9429
:100E80001A0104C2F11002C280912601823021F0C1
:100E9000412C512C320105C0412C512C3201689457
:100EA00076F868E083E290E00E941A014E2D592DF9
:100EB00060E084E791E00E941F0A4E2D592D60E00A
:100EC00088EC90E00E943F0A60E183E290E00E949B
:100ED0001A0100E010E040E050E0BA0187E30E9410
:100EE0005704F82E8111B7C1BE016F5F7F4F81E0BB
:100EF0000E949904F82E8981823030F4B301A20156
:100F000089E20E945704F82EF11006C0BE016F5FFF
:100F10007F4F81E00E9499040F5F1F4F09F4AAC11F
:100F2000898180FF03C0FF20B1F237C0F11035C0C6
:100F300060E183E290E00E94150168E083E290E0C6
:100F40000E9415014E2D592D60E088E691E00E9427
:100F50001F0A4E2D592D60E088EC90E00E943F0A58
:100F600089811F928F938DE191E09F938F939F9240
:100F7000EF920E94C90A4E2D592D60E088EC90E056
:100F80000E943F0A0F900F900F900F900F900F90BC
:100F900015C00F2EF1E8FF2EF02D60E183E290E006
:100FA0000E94150168E083E290E00E94150160E86C
:100FB00080E290E00E941A01F11068C18091260140
:100FC000823009F018C168E083E290E00E941A01C3
:100FD0004E2D592D60E085E891E00E941F0A4E2DAC
:100FE000592D60E088EC90E00E943F0A60E183E2C6
:100FF00090E00E941A0140E050E0BA018AE30E94AA
:101000005704F82E8111E2C0BE016F5F7F4F85E06B
:101010000E949904F82E60E183E290E00E9415019D
:1010200068E083E290E00E9415014E2D592D60E0AA
:1010300088E691E00E941F0A4E2D592D60E088EC51
:1010400090E00E943F0A8E010F5F1F4F5E01F6E0A5
:10105000AF0EB11C0F2EF6E1CF2EF1E0DF2EF02DFA
:10106000F80181918F011F928F93DF92CF929F920F
:10107000EF920E94C90A4E2D592D60E088EC90E055
:101080000E943F0A0F900F900F900F900F900F90BB
:10109000A016B10629F76DE088EC90E00E94150AD1
:1010A0006AE088EC90E00E94150A8A8188230CF09F
:1010B000D7C0807C803C89F4109226014E2D592D9A
:1010C00060E08AEE90E00E941F0A4E2D592D60E0EC
:1010D00088EC90E00E943F0AD9C089E08093260105
:1010E0004E2D592D60E089E091E00E941F0A4E2D9F
:1010F000592D60E088EC90E00E943F0A68E083E2AE
:1011000090E00E941A014E2D592D60E085E991E092
:101110000E941F0A4E2D592D60E088EC90E00E943D
:101120003F0A60E183E290E00E941A0140E052E051
:1011300060E070E080E10E945704F82E8111A6C0A3
:10114000BE016F5F7F4F81E00E949904F82E60E13D
:1011500083E290E00E94150168E083E290E00E9443
:1011600015014E2D592D60E088E691E00E941F0A7E
:101170004E2D592D60E088EC90E00E943F0A898155
:101180001F928F938DE191E09F938F939F92EF92A7
:101190000E94C90A4E2D592D60E088EC90E00E9413
:1011A0003F0A4E2D592D60E08CEC90E00E941F0A02
:1011B0004E2D592D60E088EC90E00E943F0A0F9080
:1011C0000F900F900F900F900F9060C060E183E23E
:1011D00090E00E94150168E083E290E00E94150112
:1011E00060E880E290E00E941A0150C00F2EF3E800
:1011F000FF2EF02D4BC0F12C49C0FFEFCF1ADF0AB4
:1012000015CDF110D9CE18CD68E083E290E00E94B0
:101210001A014E2D592D60E085E891E00E941F0AC9
:101220004E2D592D60E088EC90E00E943F0A60E16D
:1012300083E290E00E941A0140E050E0BA018AE3A4
:101240000E945704F82E882309F4B5CD0BCEFF2059
:1012500009F41ACE1BC08981823008F05DCE4ECED3
:101260000F2EF6E8FF2EF02D11C00F2EF3E8FF2E03
:10127000F02DA2CE898180FD8CCE0F2EF1E8FF2EBD
:10128000F02D54CE0F2EF5E8FF2EF02D8F2D289641
:101290000FB6F894DEBF0FBECDBFDF91CF911F9187
:1012A0000F91FF90EF90DF90CF90BF90AF909F9005
:1012B0007F906F905F904F900895809126010895E0
:1012C000CF92DF92EF92FF92CF93DF93EC016A010E
:1012D0007B018C349105A9F460E283E290E00E94E6
:1012E000150160E283E290E00E94100160E883E271
:1012F00090E00E941A0160E883E290E00E941001F1
:1013000017C08C3A9105A1F468E08CE290E00E944D
:10131000150168E08CE290E00E94100160E889E22B
:1013200090E00E941A0160E889E290E00E941001BA
:1013300060E074E284EF90E0A70196010E948D0ABC
:10134000223030F480E5888381E0898380E038C0F2
:101350008EEF820F823028F480E58883198280E046
:101360002FC08CEF820F843030F481E5888381E0D8
:10137000898380E025C088EF820F883028F481E5DA
:101380008883198280E01CC080EF820F803130F4A6
:1013900082E5888381E0898380E012C080EE820F3D
:1013A000803228F482E58883198280E009C02054C5
:1013B000203428F483E58883198280E001C08FE01F
:1013C000DF91CF91FF90EF90DF90CF900895FC01D7
:1013D000628391819923ECF782810895CF93DF9303
:1013E000EC01CB01A0E0B0E0880F991FAA1FBB1F42
:1013F000880F991FAA1FBB1F9C01AD01220F331F2D
:10140000441F551F60E074E284EF90E00E948D0A53
:10141000215031093D832C8382E0888386E08A83D2
:1014200088E18983DF91CF910895FC01908195FF38
:10143000FDCF668380E0089587E291E00895611111
:101440000EC0262F30E0FC01E20FF31FE491DA0119
:10145000A20FB31FEC936F5FE111F3CF0EC0FC013D
:10146000DA018FEF860F90E00196480F591F8491A3
:101470008D933196A417B507D1F7862F0895CF9293
:10148000DF92EF92FF920F931F93CF93DF937C0134
:101490008A01662331F0C62ED12C1C141D0474F071
:1014A0001FC0FA0160816623D9F0EA012196C701C5
:1014B0000E94150A69916111FACF12C0C0E0F801CB
:1014C000EC0FF11DC7FDFA956081C7010E94150A56
:1014D000CF5F8C2F0C2E000C990B8C159D057CF387
:1014E000DF91CF911F910F91FF90EF90DF90CF9000
:1014F0000895AA1BBB1B51E107C0AA1FBB1FA6175B
:10150000B70710F0A61BB70B881F991F5A95A9F7AC
:1015100080959095BC01CD010895A1E21A2EAA1BD9
:10152000BB1BFD010DC0AA1FBB1FEE1FFF1FA21793
:10153000B307E407F50720F0A21BB30BE40BF50B90
:10154000661F771F881F991F1A9469F76095709519
:10155000809590959B01AC01BD01CF0108950E943B
:10156000BA0AA59F900DB49F900DA49F800D911D68
:1015700011240895A29FB001B39FC001A39F700DD5
:10158000811D1124911DB29F700D811D1124911D8B
:101590000895AEE0B0E0EFECFAE00C948A0D0D890E
:1015A0001E8986E08C831A8309838FEF9FE79E83D1
:1015B0008D83AE01475E5F4F6F89788DCE010196B6
:1015C0000E94EB0AEF81F885E00FF11F10822E9642
:1015D000E4E00C94A60DABE0B0E0E1EFFAE00C948F
:1015E0007C0D6C017B018A01FC01178216828381CC
:1015F00081FFCCC1CE0101963C01F6019381F70138
:1016000093FD859193FF81917F01882309F4BAC1ED
:10161000853239F493FD859193FF81917F01853265
:1016200029F4B60190E00E94E20CE7CF912C212C26
:10163000312CFFE1F315D8F08B3279F038F4803299
:1016400079F08332A1F4232D20611DC08D3261F029
:10165000803369F4232D216016C0832D8260382EDB
:10166000E32DE4603E2E2AC0F32DF8601DC037FC48
:101670002DC020ED280F2A3040F08E32B9F436FC10
:1016800081C1232D2064322E19C036FE06C08AE0A7
:10169000989E200D1124922E11C0EAE02E9E200D5E
:1016A0001124222EF32DF0623F2E08C08C3621F437
:1016B000832D8068382E02C0883641F4F70193FDEF
:1016C000859193FF81917F018111B3CF982F9F7DE9
:1016D0009554933028F40C5F1F4F9FE399830DC0FE
:1016E000833631F0833771F0833509F059C021C05A
:1016F000F801808189830E5F1F4F88248394912C89
:10170000530113C02801F2E04F0E511CF801A080D4
:10171000B18036FE03C0692D70E002C06FEF7FEF2D
:10172000C5010E94D70C4C018201F32DFF773F2E9B
:1017300016C0280122E0420E511CF801A080B180A1
:1017400036FE03C0692D70E002C06FEF7FEFC50168
:101750000E94CC0C4C01F32DF0683F2E820133FC2B
:101760001BC0822D90E088169906B0F4B60180E285
:1017700090E00E94E20C2A94F4CFF50137FC8591A9
:1017800037FE81915F01B60190E00E94E20C2110CA
:101790002A9421E0821A91088114910471F7E8C01B
:1017A000843611F0893641F5F80137FE07C06081B3
:1017B0007181828193810C5F1F4F08C060817181AC
:1017C000072E000C880B990B0E5F1F4FF32DFF7631
:1017D0003F2E97FF09C090958095709561957F4F3A
:1017E0008F4F9F4FF0683F2E2AE030E0A3010E9408
:1017F0001E0D882E861845C0853731F4232D2F7E87
:10180000B22E2AE030E025C0932D997FB92E8F3675
:10181000C1F018F4883579F0B5C0803719F08837F1
:1018200021F0B0C0E92FE061BE2EB4FE0DC0FB2D4B
:10183000F460BF2E09C034FE0AC0292F2660B22EE4
:1018400006C028E030E005C020E130E002C020E121
:1018500032E0F801B7FE07C0608171818281938117
:101860000C5F1F4F06C06081718180E090E00E5FC9
:101870001F4FA3010E941E0D882E8618FB2DFF7797
:101880003F2E36FE0DC0232D2E7FA22E891458F434
:1018900034FE0BC032FC09C0832D8E7EA82E05C0FD
:1018A000B82CA32C03C0B82C01C0B92CA4FE0FC0C7
:1018B000FE01E80DF11D8081803321F49A2D997E7F
:1018C000A92E09C0A2FE06C0B394B39404C08A2D09
:1018D000867809F0B394A3FC11C0A0FE06C0B21430
:1018E00088F4280C922C9B180EC0B21460F4B60138
:1018F00080E290E00E94E20CB394F7CFB21418F4A7
:101900002B1802C0982C212CA4FE10C0B60180E335
:1019100090E00E94E20CA2FE17C0A1FC03C088E781
:1019200090E002C088E590E0B6010CC08A2D867870
:1019300059F0A1FE02C08BE201C080E2A7FC8DE25B
:10194000B60190E00E94E20C891438F4B60180E3FD
:1019500090E00E94E20C9A94F7CF8A94F301E80D8C
:10196000F11D8081B60190E00E94E20C8110F5CF5C
:10197000222009F442CEB60180E290E00E94E20CFF
:101980002A94F6CFF6018681978102C08FEF9FEFF0
:101990002B96E2E10C94980DFC010590615070408B
:1019A0000110D8F7809590958E0F9F1F0895FC0128
:1019B0006150704001900110D8F7809590958E0F7E
:1019C0009F1F08950F931F93CF93DF93FB012381F4
:1019D00021FD03C08FEF9FEF2CC022FF16C0468170
:1019E0005781248135814217530744F4A081B18186
:1019F0009D012F5F3F4F318320838C932681378158
:101A00002F5F3F4F3783268314C08B01EC01FB010E
:101A10000084F185E02D0995892BE1F6D801169611
:101A20008D919C911797019617969C938E9316977C
:101A3000CE01DF91CF911F910F910895FA01AA274E
:101A4000283051F1203181F1E8946F936E7F6E5F01
:101A50007F4F8F4F9F4FAF4FB1E03ED0B4E03CD0AF
:101A6000670F781F891F9A1FA11D680F791F8A1F92
:101A7000911DA11D6A0F711D811D911DA11D20D0F9
:101A800009F468943F912AE0269F11243019305DB3
:101A90003193DEF6CF010895462F4770405D4193A4
:101AA000B3E00FD0C9F7F6CF462F4F70405D4A33F1
:101AB00018F0495D31FD4052419302D0A9F7EACFB9
:101AC000B4E0A6959795879577956795BA95C9F7E8
:101AD00000976105710508959B01AC010A2E0694DB
:101AE0005795479537952795BA95C9F7620F731F94
:101AF000841F951FA01D08952F923F924F925F92D1
:101B00006F927F928F929F92AF92BF92CF92DF920D
:101B1000EF92FF920F931F93CF93DF93CDB7DEB772
:101B2000CA1BDB0B0FB6F894DEBF0FBECDBF099406
:101B30002A88398848885F846E847D848C849B845D
:101B4000AA84B984C884DF80EE80FD800C811B816B
:101B5000AA81B981CE0FD11D0FB6F894DEBF0FBE9A
:0A1B6000CDBFED010895F894FFCF0A
:101B6A002535642E20005B4449525D0A0D0025325A
:101B7A002E32580A0D0025322E3258200025322ED8
:061B8A003258200A0D0094
:00000001FF
