:100000000C94A9090C94C6090C94C6090C94C60951
:100010000C94C6090C94C6090C94C6090C94C60924
:100020000C94C6090C94AA130C94C6090C94C60926
:100030000C94C6090C94C6090C94C6090C94C60904
:100040000C94C6090C94C6090C94C6090C94C609F4
:100050000C94C6090C94C6090C94C6090C94C609E4
:100060000C94C6090C94C6090C94C6090C94C609D4
:100070000C94C6090C94C6090C94C6090C94C609C4
:100080000C94C6090C94C6090C94C6090C94C609B4
:100090000C94C6090C94C6090C94C6090C94C609A4
:1000A0000C94C6090C94C6090C94C6090C94C60994
:1000B0000C94C6090C94C6090C94C6090C94C60984
:1000C0000C94C6090C94C6090C94C6093A00643A0B
:1000D00065BB083A09BB50105267517705A1180457
:1000E000540155210700060C0B0350105100520417
:1000F000610F6455655505A11804FFFFFFFF3A0124
:100100002A042800290020002100220023002400C6
:1001100025002600270028012802218F280321001E
:10012000280428052806280728082809280A280B53
:10013000280C20802190280D20002100280E2081ED
:100140002191280F200021922810210028112193AD
:100150002812210028132814281520822816200090
:100160002817281828192194281A2195281B219628
:10017000281C2100281D2083281E2000281F2197CD
:100180002820210028212822282328242825282641
:10019000282728282829282A2084282B2000282CB2
:1001A000282D282E282F2830283128322085283342
:1001B000200028342835283628372198283821006F
:1001C0002839283A283B283C283D283E283F28400B
:1001D00028412842284328442845284628472848BB
:1001E0002849284A284B284C284D284E284F28506B
:1001F000285128522853285428552856285728581B
:100200002859285A285B285C285D285E285F2860CA
:1002100028612862219928632100286428652866BE
:10022000286728682869286A286B286C286D286E3A
:10023000286F2870287128722873287428752876EA
:10024000287728782879287A287B287C287D287E9A
:10025000287F28802881288228832884288528864A
:10026000288728882889288A288B288C288D288EFA
:10027000288F289028912086289220872893200074
:10028000289428952896289728982899289A289B72
:10029000289C289D289E289F219A28A0210028A1DB
:1002A00028A228A328A428A528A628A728A828A9E2
:1002B00028AA28AB28AC28AD28AE28AF28B028B192
:1002C00028B228B328B428B528B628B728B828B942
:1002D000208828BA200028BB208928BC200028BDFF
:1002E00028BE28BF28C028C128C228C3219B28C4F3
:1002F000210028C528C628C728C828C928CA28CB4D
:1003000028CC28CD28CE28CF28D028D128D228D331
:1003100028D428D528D628D728D828D928DA28DBE1
:1003200028DC28DD28DE28DF28E028E1208A28E2F2
:10033000208B28E3200028E428E528E628E728E8A1
:1003400028E928EA28EB28EC28ED28EE28EF28F009
:1003500028F128F228F328F428F528F628F728F8B9
:10036000208C28F92000219C28FA219D28FB208D33
:10037000219E28FC208E219F28FD2000210028FEA0
:1003800028FF2A012800220123952489250726A475
:100390002707280121C72200238026C4270C280212
:1003A0002009211C220426AA270A28032000210054
:1003B000220023A626A02707280428052005238439
:1003C00026B427092806200022032300248125C003
:1003D00026AB270A280721AE22002395248925076A
:1003E00026A42700280821482201238026C4270CA0
:1003F000280920092104220426AA270A280A200005
:100400002100220023A826A42707280B280C21401E
:100410002220238026C4270C280D222426C6280E3D
:10042000219E220026C8280F20092102221426AA74
:10043000270A2810200521002200238426B427093A
:100440002811200021012300240125C026AB270A02
:10045000281221C323952489250726202700281345
:10046000200321C223832626270D281421B3220826
:100470002815200021C622002395260027082816CB
:10048000210023002496250326AA270A28172042A4
:1004900021B62380248925072818200021002394D1
:1004A000260E2819200F238426B42709281A200095
:1004B000239326A82703281B26282700281C210170
:1004C0002300240125C026AB270A281D21C523951A
:1004D0002489250726202700281E21002394260092
:1004E000270A281F260E2820200321792201238392
:1004F0002626270D2821213228222000210422002F
:100500002380240025FC26AA270A28232100230073
:100510002500282421A3220D2380249E253B282565
:100520002042215722012489250728262000214323
:10053000220D240025382827210822982395248974
:1005400025072624270028282042219322012380E2
:1005500026AA270A28292003217E2204238326266F
:10056000270D282A200021B02200239526A0270746
:10057000282B21002300240C250426AA270A282C36
:1005800021022380248625C326AB282D20422197D3
:1005900022012489250726AA282E200021002200D6
:1005A000241F2504282F21B22395248925072620DE
:1005B000270428302042218B2204238026AA270AE0
:1005C0002831200021B12200239526A027072832B8
:1005D00020032175220423832626270D2833200596
:1005E00021002200238426B427092834200021601A
:1005F0002300240125C026AB270A2835210822988C
:1006000023952489250726242700283621BC22008B
:10061000283721A3220D2300240125C026AB270A59
:1006200028382160220023802400253826AA283972
:100630002106229823952489250726242700283A75
:1006400021BE2200283B20052100238426B427094F
:10065000283C200021602300240125C026AB270A66
:10066000283D21422201239524892507262427009D
:10067000283E210C229826A42707283F210828403D
:10068000216022002300240125C026AB270A28412F
:10069000210C229823952489250726242700284207
:1006A000200521002200238426B4270928432000A6
:1006B00023802400251026AB270A2844212222016A
:1006C0002395248925072624270028452100220078
:1006D00023002404251226AA270A2846200321D411
:1006E00022052383248925072626270D2847200055
:1006F000216022002300240125C026AB270A2848B8
:1007000021B323952489250726002708284921009D
:1007100023002409250026AA270A284A210223802B
:100720002486253B284B204221DD220524892507EC
:10073000284C200021002200241F2500284D21B331
:1007400023952489250726202700284E21002300F1
:100750002497250326AA270A284F204221E22205B2
:1007600023802489250728502000211022002300FF
:10077000248025CC26AB28512100224023B4248993
:10078000250726AA27042852220023B026922709EB
:100790002853211422012395260027082854214894
:1007A00023A4262A270028552100220023002409FB
:1007B000250026AA270A2856210823802486253BBF
:1007C0002857204221112207248925072858200074
:1007D00021002200241F25002859211422012395DD
:1007E0002489250726202700285A211626022709B2
:1007F000285B2100220023002480254826AA270AFE
:10080000285C23A02489250726142709285D248035
:10081000255026A42704285E211622012395248929
:1008200025072700285F210422002300249C257827
:1008300026AA270A28602143220D240125C426ABBD
:1008400028612103220024152862210024002500AC
:1008500026AA2863215E23952489250726102709C7
:10086000286421032300241525C426AB270A286504
:10087000210023802400250626AA2866248F25E34C
:1008800026AB2867204221CD22072489250726AAE6
:1008900028682000216022002300240125C026AB07
:1008A000286921002380248F250326AA286A204254
:1008B00021DD220724892507286B20002143220DF2
:1008C0002300240125C026AB286C2100220024002F
:1008D000250426AA286D2003217F22012383248951
:1008E00025072626270D286E2162286F2005210066
:1008F0002200238426B4270928702000210623958E
:10090000260027082871210123002497253B26AAC9
:10091000270A28722042210E2208238024892507D5
:1009200028732003213C220B23832626270D2874BD
:10093000200021032200239526022708287521275D
:100940002300248125C426AB270A28762100238092
:100950002409254826AA28772158223423A324894C
:100960002507262A270028782100220023A0260018
:1009700027092879210723802403253926AA270A55
:10098000287A21042300241C2538287B2107238072
:1009900024832539287C21032395248925072602D1
:1009A0002708287D21272300248125C426AB270A78
:1009B000287E210023802409254826AA287F215843
:1009C000223423A324892507262A270028802106EC
:1009D00022002300248125C026932701288121009D
:1009E00023802489254826AA270A288220022166F6
:1009F00022082300240025662883200021002200ED
:100A00002380241F2502288421062489250726DC2B
:100A1000270C2885210023AA26AA270A288623B680
:100A200026002708288723802486253B26AA270A14
:100A3000288821052489250726DC270C2889210000
:100A400023AA26AA270A288A23B626002708288B45
:100A500023802486253B26AA270A288C2042217B36
:100A6000220824892507288D200021002200230048
:100A700024012582288E2105248125C226AB288FBA
:100A80002003219322082383248925072626270D66
:100A900028902000210522002300248125C0261350
:100AA00027012891210023802489254826AA270A86
:100AB00028922002217E2208230024002566289304
:100AC0002000210022002380241F250228942105D4
:100AD0002489250726DC270C2895210023AA26AA8D
:100AE000270A289623B626002708289723802486DD
:100AF000253B26AA270A289821052489250726DCD4
:100B0000270C2899210023AA26AA270A289A23809D
:100B1000241F2502289B21012300248125C226AB06
:100B2000289C200321932208238324892507262635
:100B3000270D289D20002104220023952612270836
:100B4000289E216023C426AA2704289F210023C0B1
:100B50002600270928A0204221CB2208238026AA8C
:100B6000270A28A12070215422B82395261227088D
:100B700028A2200221CC2208238026AA270A28A303
:100B8000200321CA220F23832626270D28A4200014
:100B9000210022002300248C250C26AA270A28A540
:100BA00021042482257828A6210023802489254831
:100BB0002612270428A7200321DE220F23832507DE
:100BC0002626270D28A82000210122002300249C8E
:100BD000257826AA270A28A92100238024812540D8
:100BE00028AA200321CF220F238324892507262624
:100BF000270D28AB2070210822B8239526A02704B2
:100C000028AC200321D4220F23832626270D28ADCC
:100C10002127220B28AE2070216322B823952612AB
:100C2000270828AF2000210122002380248625CB1D
:100C300026AB270A28B0204221DD22082489250777
:100C400026AA28B1200021182280239526A4270057
:100C500028B2200321D9220F23832626270D28B36B
:100C60002070210A22B8239526A0270028B420024C
:100C700021E02208238026AA270A28B52070210A0D
:100C800022B8239526A0270028B62154260227083B
:100C900028B720002118228026A4270028B8210088
:100CA000220023802480254826AA270A28B92070FC
:100CB000215E22B82395248925072612270828BA01
:100CC00020002100220023802409254B26AA270A80
:100CD00028BB2070215F22B8239524892507261080
:100CE000270828BC2000210022002300241C258383
:100CF00026AB270A28BD2003213222092383248919
:100D000025072626270D28BE2000210022002300CB
:100D10002482258C26AB270A28BF200321252209FF
:100D20002383248925072626270D28C0204221BC9D
:100D3000238026AA270A28C120002101220023009F
:100D4000240125C026AB28C22070210F22B823958C
:100D5000248925072620270028C3200321E3220F0A
:100D600023832626270D28C4200521002200238462
:100D700026B4270928C52000210323952614270817
:100D800028C621A623A4262A270528C7210023A098
:100D90002644270928C82118226D2380249E257BFC
:100DA00026AA270A28C920422113220B24892507B5
:100DB00028CA200021AE220023952624270028CB14
:100DC0002100220323802487257B26AA270A28CCFA
:100DD00020422116220B2489250728CD200021AE90
:100DE000220023952624270028CE200521002384D5
:100DF00026B4270928CF2003210D220B2383262682
:100E0000270D28D020002100220023002480260264
:100E1000270028D1238024092548261E28D22158BE
:100E20002234233324802507262A28D321002200B8
:100E300023002680271028D421102363262A270088
:100E400028D52100236026A8271228D621AF224CBE
:100E5000230026C8270C28D721002200268027053A
:100E600028D823802486253B261E270028D9204207
:100E7000211C220E23002480250728DA200021359A
:100E8000222926C4270C28DB2002211D220E261E23
:100E9000270028DC2000217F223426C4270C28DDEF
:100EA000210022002390249F25042610270A28DEF3
:100EB0002300248425002680271028DF21062363B1
:100EC00024802507262A270028E021002380248962
:100ED00026AA270A28E12005238426B4270928E228
:100EE0002070216122B823952612270828E32000CC
:100EF000210122002380248625C326AB270A28E46B
:100F0000204221CE220F2489250726AA28E5207019
:100F1000215022B823952612270828E62005210013
:100F20002200238426B4270928E72070216422B8F0
:100F300023952612270828E820002101220023807B
:100F4000248625C326AB270A28E9204221D3220F75
:100F50002489250726AA28EA2070215122B8239542
:100F60002612270828EB200521002200238426B41E
:100F7000270928EC2070216522B82395261227081E
:100F800028ED2000210122002380248625C326ABE2
:100F9000270A28EE204221D8220F2489250726AAD5
:100FA00028EF2070215222B823952612270828F016
:100FB000200521002200238426B4270928F120706F
:100FC000216122B823952602270828F2200021015A
:100FD00022002380248625C326AB270A28F320423B
:100FE00021DD220F2489250726AA28F4207021500C
:100FF00022B823952602270828F520052100220083
:10100000238426B4270928F6200021012380248682
:1010100025CB26AB270A28F7204221E1220F24897D
:10102000250726AA28F82000210222002300248177
:1010300025C426AB28F9210023802489254826AA27
:1010400028FA20052384250726B4270928FB2070C9
:10105000214E22B823952610270828FC20002100C5
:1010600022002380248625C326AB270A28FD2042A0
:1010700021E7220F2489250726AA28FE200021BB6C
:10108000220023952620270028FF20052100238405
:1010900026B427092A081001FFFFFFFF52656C6183
:1010A0007469766520536563746F7273203D200008
:1010B000466972737444617461536563203D200016
:1010C00053746172746F66464154203D200046415E
:1010D0005433322044657465637465642E2E2E0A81
:1010E0000D0046415431362044657465637465646F
:1010F0002E2E2E0A0D004469736B204572726F729A
:10110000210A0D0052656C61746976652053656330
:10111000746F7273203D20004C6F636174696E6759
:1011200020426F6F7420536563746F722E2E2E0AE7
:101130000D00416464722E204F6666736574202032
:101140002030202031202032202033202034202045
:1011500035202036202037202038202039202041FB
:101160002020422020432020442020452020460AE1
:101170000D00426C6F636B2073697A652073657430
:1011800020746F203531322062797465730A0D0046
:1011900048696768204361706163697479204361BD
:1011A00072642064657465637465642E0A0D00536F
:1011B00074616E6461726420436170616369747903
:1011C00020436172642064657465637465642E0AEB
:1011D0000D0056657273696F6E20322053442043B0
:1011E0006172642064657465637465642E0A0D0021
:1011F00056657273696F6E203120534420436172CB
:10120000642064657465637465642E0A0D0052651C
:1012100073706F6E7365203D200041434D4434313F
:101220002073656E74202E2E2E2000434D443538D9
:101230002073656E74202E2E2E2000434D443136CF
:101240002073656E74202E2E2E2000434D443820CE
:1012500073656E74202E2E2E2000434D4430207373
:10126000656E74202E2E2E20000A0D5344204361FB
:10127000726420496E697469616C697A6174696F1E
:101280006E202E2E2E200A0D00436F6E6669677544
:10129000726174696F6E20436F6D706C6574650A5E
:1012A0000D004F75747075742066726F6D20535405
:1012B000413031333A200053656E7420746F2053EF
:1012C00054413031333A20004E756D626572206FA3
:1012D000662076616C756573207772697474656ECB
:1012E0003A2000466972737420636F6E6669677591
:1012F000726174696F6E2066696C652073656E74C7
:101300002E2E2E0A0D004F75747075742066726F44
:101310006D2049442072656769737465723A2000D4
:101320006572726F7220666C61673A20000710095F
:1013300002B80000000605A10004050707000154DB
:1013400055060B525165645061050D180C46487DD9
:10135000720011241FBECFEFD8E0DEBFCDBF11E079
:10136000A0E0B1E0E0E0F2E402C005900D92A03F01
:10137000B107D9F726E0A0EFB1E001C01D92AD366C
:10138000B207E1F70E94E8120C94FE200C940000D2
:10139000FC012181622B61830895FC012281622B73
:1013A00062830895FC0192816095692362830895A8
:1013B00081E492E008952F923F924F925F926F9254
:1013C0007F928F929F92AF92BF92CF92DF92EF92D5
:1013D000FF920F931F93CF93DF93CDB7DEB72C9778
:1013E0000FB6F894DEBF0FBECDBF2B013C015A8370
:1013F00049830E942B1D282E9A87809142028230B9
:1014000069F4209153023091540240915502509159
:1014100056022B833C834D835E830AC08091410238
:10142000282F30E040E050E02B833C834D835E83E7
:10143000409145025091460229813A81C301B2018F
:101440000E946115882331F0A12CB12CEBC0812CB6
:10145000912C06C073016201A12CB12C812C912C1E
:1014600069817A81C4010E94710C382E35EE831790
:1014700009F4CCC0882309F4C0C0A401455F5F4FC4
:1014800058874F8369817A81CA010E94710C8987CC
:101490008E7009F0A8C05FEFA51AB50ABF92AF928F
:1014A00080E091E09F938F93BA85BF932F920E9423
:1014B000141E422D5A8560E088EC90E00E944E1D7B
:1014C0009401285F3F4F0F900F900F900F900F9057
:1014D0000F9084013C872B8769817A81C8010E9423
:1014E000710C682F88EC90E00E941E1D0F5F1F4F4B
:1014F0004B855C854017510779F7598554FF26C005
:101500000F81188569817A818B859C850E94710C79
:10151000682F88EC90E00E941E1DAB85BC8511965B
:10152000BC87AB870A171B0769F788E0E6E0F1E0A4
:10153000A22DBA8501900D928A95E1F7422D5A8528
:1015400060E088EC90E00E944E1D4DC06EE288EC99
:1015500090E00E941E1D0F81188569817A818B851C
:101560009C850E94710C682F88EC90E00E941E1DE3
:101570004B855C854F5F5F4F5C874B870417150772
:1015800061F76DE088EC90E00E941E1D6AE088EC37
:1015900090E00E941E1D27C05FEFC51AD50AE50A1C
:1015A000F50AD701C60184199509A609B7092B8147
:1015B0003C814D815E8182179307A407B50768F4CB
:1015C000409145025091460229813A81C701B601F6
:1015D0000E946115811124C003C06894B7F822C02D
:1015E000311035CF1FC030E2830E911C4FEF8416AF
:1015F00041E0940608F434CFCFCF50E2850E911C21
:101600008FEF881681E0980638F60CC090E2890EBC
:10161000911CAFEF8A16A1E09A0608F421CFBCCF47
:10162000A12CB12CC5012C960FB6F894DEBF0FBECD
:10163000CDBFDF91CF911F910F91FF90EF90DF9081
:10164000CF90BF90AF909F908F907F906F905F9062
:101650004F903F902F9008952F923F924F925F921C
:101660006F927F928F929F92AF92BF92CF92DF92B2
:10167000EF92FF920F931F93CF93DF93CDB7DEB717
:101680002B970FB6F894DEBF0FBECDBF4B015C01A8
:101690005A874987190180914202823049F440906B
:1016A000530250905402609055027090560206C04A
:1016B00080914102482E512C612C712C40914502A1
:1016C000509146029101C501B4010E946115882321
:1016D00061F020E030E040E050E829833A834B831A
:1016E0005C83E2C000E010E00AC075016401188666
:1016F0001F8200E010E019821A821B821C82B10155
:10170000C8010E94710C8B87853E09F4BAC08823FA
:1017100009F4C3C0A801455F5F4F5E834D83B101EB
:10172000CA010E94710C8E7009F0A3C08F81988548
:10173000019698878F83A985BA858A179B0709F038
:1017400098C080914202843021F5B101C8014596CC
:101750000E94710C90E0A0E0B0E02227382F492FC2
:101760005A2F29833A834B835C83B101C801449685
:101770000E94710C29813A814B815C81282BDA010E
:10178000C9012227382F492F5A2F29833A834B83A7
:101790005C83B101C8014B960E94710C29813A818A
:1017A0004B815C81282BDA01C9012227382F492F70
:1017B0005A2F29833A834B835C83B101C8014A962F
:1017C0000E94710C29813A814B815C81282B2983ED
:1017D0003A834B835C83B1018D819E810E94710CA1
:1017E00084FF57C089819A81AB81BC81B0618983B4
:1017F0009A83AB83BC83A985BA85B887AF834DC074
:101800001B86BFEFCB1ADB0AEB0AFB0AD701C60126
:1018100088199909AA09BB0984159505A605B70574
:1018200070F440914502509146029101C701B60102
:101830000E946115811114C02B85211153CF89811C
:101840009A81AB81BC81892B8A2B8B2B69F520E097
:1018500030E040E050E829833A834B835C8324C026
:1018600080E090E0A0E0B0E889839A83AB83BC83FA
:101870001BC0005E1F4F0F3F91E0190708F43FCFD8
:10188000C0CF005E1F4F0F3FA1E01A0708F437CF0B
:10189000B8CF29853A8538872F83005E1F4F0F3FC9
:1018A000114008F0ADCFCBCF69817A818B819C81CB
:1018B0002B960FB6F894DEBF0FBECDBFDF91CF9150
:1018C0001F910F91FF90EF90DF90CF90BF90AF905E
:1018D0009F908F907F906F905F904F903F902F9050
:1018E00008959170FB01E80FF91F808108959170B0
:1018F000FB01E80FF91F9181892F90E0982F88272D
:101900002081822B08959170FB01E80FF91F6381FC
:10191000862F90E0A0E0B0E0BA2FA92F982F88275B
:101920002281822BBA2FA92F982F88272181822BE1
:10193000BA2FA92F982F88272081BC01CD01622BB7
:1019400008952F923F924F925F926F927F928F9263
:101950009F92AF92BF92CF92DF92EF92FF920F933E
:101960001F93CF93DF93CDB7DEB72E970FB6F894C2
:10197000DEBF0FBECDBF7C010E94D8099E878D8738
:101980000E942B1D082F192F482F592F60E088E146
:1019900091E10E942E1D402F512F60E088EC90E0D5
:1019A0000E944E1D970140E052E060E070E0CB01E4
:1019B0000E946115D7018C918D7F893E09F44DC03D
:1019C000B70186EC91E00E94830C69837A838B8354
:1019D0009C83970140E052E00E946115402F512FF7
:1019E00060E084E091E10E942E1D402F512F60E0C5
:1019F00088EC90E00E944E1DBC81BF93EB81EF9379
:101A0000FA81FF9329812F938AE391E09F938F932B
:101A10001F930F930E94141E402F512F60E088ECFB
:101A200090E00E944E1DD7018C918D7F0FB6F894E7
:101A3000DEBF0FBECDBF893EA1F0402F512F60E029
:101A400086EF90E10E942E1D402F512F60E088EC20
:101A500090E00E944E1D80EFCEC119821A821B8237
:101A60001C82B7018BE090E00E94770C6C01AD8581
:101A7000BE8515969C938E93149712961C92813076
:101A8000910579F021E001C0232F9695879531E0EB
:101A9000320F81309105C1F74D855E85DA011296CE
:101AA0002C93F7013584AD85BE853C92B7018EE05D
:101AB00090E00E94770C4C01F7012088B70181E18A
:101AC00090E00E94770C5C01B70183E190E00E94F6
:101AD000770C9C0140E050E02D833E834F83588774
:101AE000232B242B252B49F4B70180E290E00E94A0
:101AF000830C6D837E838F839887B70186E190E0A6
:101B00000E94770C2C01612C712C4114510461044A
:101B1000710489F4B70184E290E00E94830C2B01E8
:101B20003C01B7018CE290E00E94830C69877A87C0
:101B30008B879C8704C019861A861B861C86C50164
:101B4000880F991F82959295907F9827807F98277C
:101B5000960121503109820F931FB6010E94881D02
:101B60006B01E12CF12CAD85BE855296CD92DD92B4
:101B7000ED92FC925597A12CB12CA22DB0E0A301BF
:101B800092010E94BE1D2B013C01C80CD91CEA1C0D
:101B9000FB1C8D819E81AF81B8858C199D09AE0992
:101BA000BF09BC01CD016419750986099709232D68
:101BB00030E040E050E00E949C1D2D833E834F8327
:101BC000588789819A81AB81BC81880D991DAA1D96
:101BD000BB1DED85FE8586879787A08BB18B402F37
:101BE000512F60E080EC90E10E942E1D402F512F7C
:101BF00060E088EC90E00E944E1DAD85BE85519658
:101C00008C9151978F9350968C9150978F931F96EC
:101C10008C911F978F931E968C918F930F2EFAE3C2
:101C2000EF2EF1E0FF2EF02DFF92EF921F930F9316
:101C30000E94141E402F512F60E088EC90E00E941B
:101C40004E1DED85FE85468557856089718982899F
:101C50009389A489B589840F951FA61FB71F840D8A
:101C6000951DA61DB71D82879387A487B587402F32
:101C7000512F60E080EB90E10E942E1D402F512FEC
:101C800060E088EC90E00E944E1DAD85BE851D96FB
:101C90008C911D978F931C968C911C978F931B96FC
:101CA0008C911B978F931A968C918F93FF92EF9242
:101CB0001F930F930E94141E402F512F60E088EC59
:101CC00090E00E944E1D0FB6F894DEBF0FBECDBF50
:101CD0002D813E814F815885253F3F4F410551055C
:101CE00030F582E0AD85BE8511968C93119781E029
:101CF00013968C93402F512F60E082EE90E10E946A
:101D00002E1D402F512F60E088EC90E00E944E1D68
:101D1000ED85FE8586859785A089B189480E591E77
:101D20006A1E7B1E468257826086718630C084E0C0
:101D3000ED85FE85818382E08383402F512F60E013
:101D40008EEC90E10E942E1D402F512F60E088EC18
:101D500090E00E944E1D29853A854B855C85225076
:101D6000310941095109ED85FE85A081B0E00E944D
:101D7000BE1DC284D384E484F584DC01CB018C0DC8
:101D80009D1DAE1DBF1D86839783A087B187402F01
:101D9000512F60E08CE990E10E942E1D402F512FC1
:101DA00060E088EC90E00E944E1DAD85BE851996DE
:101DB0008C9119978F9318968C9118978F931796EB
:101DC0008C9117978F9316968C918F938AE391E05D
:101DD0009F938F931F930F930E94141E402F512F98
:101DE00060E088EC90E00E944E1D0FB6F894DEBFD4
:101DF0000FBECDBF80E02E960FB6F894DEBF0FBEAB
:101E0000CDBFDF91CF911F910F91FF90EF90DF90A9
:101E1000CF90BF90AF909F908F907F906F905F908A
:101E20004F903F902F900895CF92DF92EF92FF92C4
:101E30006B017C010E94D809FC01C114D104E104AA
:101E4000F10429F4668177818085918512C0A7010C
:101E500096012250310941095109A081B0E00E9448
:101E6000BE1DC284D384E484F5846C0D7D1D8E1D5B
:101E70009F1DFF90EF90DF90CF9008958F929F92DB
:101E8000AF92BF92CF92DF92EF92FF920F931F9388
:101E9000CF93DF936B017C018A010E94D809EC018A
:101EA0004C815D818A819B81891B4601570104C059
:101EB000B694A794979487948A95D2F78E859F8538
:101EC000A889B989BC01CD01680D791D8A1D9B1DAA
:101ED00098010E9461150B8004C0CC0CDD1CEE1C27
:101EE000FF1C0A94D2F78C819D810197C822D922C8
:101EF0008981843031F4B801C6010E94830C9F703F
:101F000017C0823091F4B801C6010E94770CBC0161
:101F100080E090E06F3F2FEF72078105910541F45B
:101F20006FEF7FEF8FEF9FE003C060E070E0CB01C9
:101F3000DF91CF911F910F91FF90EF90DF90CF90A5
:101F4000BF90AF909F908F9008952F923F924F92A5
:101F50005F926F927F928F929F92AF92BF92CF9239
:101F6000DF92EF92FF920F931F93CF93DF93CDB742
:101F7000DEB728970FB6F894DEBF0FBECDBF2B019A
:101F80003C015E834D830E94D80998878F830E940D
:101F90002B1D182F092FC12CD12C760119821A82E2
:101FA0001B821C820F2EFEE02F2EF1E03F2EF02D23
:101FB000C114D104E104F104D1F4EF81F885A081CA
:101FC000B0E0A301920122503109410951090E9458
:101FD000BE1D82849384A484B5849B01AC01280D2A
:101FE000391D4A1D5B1D29833A834B835C8389809D
:101FF0009A80AB80BC808C0C9D1CAE1CBF1CFF92D9
:10200000EF92DF92CF92BF92AF929F928F927F9288
:102010006F925F924F923F922F920F931F930E9465
:10202000141E412F502F60E088EC90E00E944E1D5E
:10203000EF81F885448155812D813E81C501B40130
:102040000E9461154D815E8160E072E088EC90E055
:102050000E942215FFEFCF1ADF0AEF0AFF0AEF8175
:10206000F885808190E0A0E0B0E00FB6F894DEBF84
:102070000FBECDBFC816D906EA06FB0659F44D813E
:102080005E81C301B2010E943E0F2B013C01C12CB5
:10209000D12C760187E2E0E4F1E0A12FB02F01908E
:1020A0000D928A95E1F7412F502F60E088EC90E087
:1020B0000E944E1D88EC90E00E94251D803209F49C
:1020C00077CF883531F08035A9F7C301B2010E947E
:1020D000E3136DE088EC90E00E941E1D6AE088EC3E
:1020E00090E00E941E1D6AE088EC90E00E941E1D98
:1020F00080E028960FB6F894DEBF0FBECDBFDF910B
:10210000CF911F910F91FF90EF90DF90CF90BF90F4
:10211000AF909F908F907F906F905F904F903F9087
:102120002F900895CF93DF93EC019A01AB0160E00B
:1021300074E284EF90E00E949C1DDA01C90140978F
:10214000A109B109813021E09207A105B10598F0FC
:1021500020E0B695A79597958795B695A7959795FD
:1021600087952F5F813031E09307A105B10588F78E
:10217000243030F401C020E02983888380E001C04E
:102180008AE8DF91CF9108958F929F92AF92BF928C
:10219000CF92DF92EF920F931F93CF93DF931F9213
:1021A000CDB7DEB7FC0184EA848384818823ECF711
:1021B0008181887F89838981883039F4660F6383C0
:1021C00084E88483011103C04DC081E8CAC094E053
:1021D000901B943008F046C063E070E0A4E88B01E7
:1021E000091B1109000F111F000F111F000F111FF4
:1021F00049015A0104C0B694A794979487940A950C
:10220000D2F79F5F84818823ECF78181887F89835F
:102210008981883119F48382A48391C089818832AD
:1022200019F48382A4838BC08981803239F484E8D5
:102230008483848184FDFDCF82E886C089818033D8
:1022400039F484E88483848184FDFDCF82E87CC0F6
:102250008981883309F073C084E8848381E874C07D
:1022600081117FC0EE20A9F1EA9490E034E8D60114
:10227000A90FB11D2C9184818823ECF78181887F7F
:1022800089838981883119F42383348363C08981E8
:10229000883219F4238334835DC08981803239F414
:1022A00084E98483848184FDFDCF82E857C08981DD
:1022B000803339F484E98483848184FDFDCF82E80E
:1022C0004DC08981883309F045C084E8848381E862
:1022D00045C080E0811145C094819923ECF791813C
:1022E000987F99839981983131F494E9948394810A
:1022F00094FDFDCF36C09981983231F494E99483EE
:10230000948194FDFDCF2DC09981903239F484E9F8
:102310008483848184FDFDCF82E823C0998190333A
:1023200039F484E98483848184FDFDCF82E819C077
:1023300099819833B1F484E8848381E812C09430A1
:1023400009F04DCF80E08CCF943009F489CF09C0DB
:102350009F5F8DCF9E11FCCF80E0BCCF9E1509F40E
:10236000B9CF0F90DF91CF911F910F91EF90DF9038
:10237000CF90BF90AF909F908F9008958F929F9233
:10238000AF92BF92CF92DF92EF92FF920F931F9383
:10239000CF93DF931F92CDB7DEB75C01F62E1E2DD3
:1023A0004601002341F0CE0101966C01E12CC501EC
:1023B0000E94C41001C080E06F2D660F61606983C8
:1023C00094EAF5019483F50194819923E4F79181CE
:1023D000987F983019F0903109F057C0F501638368
:1023E00094E89483811159C0F50194819923E4F70D
:1023F0009181987F903459F4113019F494E89483C2
:1024000046C094ECF5019483111141C046C0983444
:1024100009F042C084E9F5018483F501848184FDDB
:10242000FCCF82E83AC0F50194819923E4F79181C9
:10243000987F903579F411509381F401E20FF11DEA
:1024400090832F5F113019F4F5015483ECCFF5011F
:10245000348318C0983579F41150F5019381F40153
:10246000E20FF11D90832F5FF5014483F501948104
:1024700094FDFCCF07C0983329F484E8F5018483E8
:1024800081E80BC01111CFCF08C081E806C020E061
:1024900044E934EC54E8C7CF81E80F90DF91CF9145
:1024A0001F910F91FF90EF90DF90CF90BF90AF9072
:1024B0009F908F9008958F929F92AF92BF92EF92CC
:1024C000FF920F931F93CF93DF93CDB7DEB72B9778
:1024D0000FB6F894DEBF0FBECDBF7C01FE01319672
:1024E000CE010C961192E817F907E1F700E0C70159
:1024F0000E94251D182F80ED810F8A3068F4612F0E
:10250000C7010E941E1DE1E0F0E0EC0FFD1FE00F8F
:10251000F11D10830F5F45C0183011F01F37A9F46B
:102520000150E1E0F0E0EC0FFD1FE00FF11D108223
:1025300068E0C7010E941E1D60E2C7010E941E1DC7
:1025400068E0C7010E941E1D2CC01D3021F01A300A
:1025500011F01E3231F5CE0101960E94D81D4B01BB
:102560005C016DE0C7010E941E1D6AE0C7010E9468
:102570001E1D0A3071F4CE0101960E94D81D4B0138
:102580005C016DE0C7010E941E1D6AE0C7010E9448
:102590001E1D8FEF88169806A806B80609F4A7CF67
:1025A00004C00A3009F0A3CFE6CFC501B4012B96D1
:1025B0000FB6F894DEBF0FBECDBFDF91CF911F9154
:1025C0000F91FF90EF90BF90AF909F908F900895E4
:1025D0000E942B1DD82FC92F60EC80E290E00E9452
:1025E000CD0960EC80E290E00E94C80969E183E2D5
:1025F00090E00E94CD0969E183E290E00E94C80961
:1026000060E886E290E00E94CD0960E886E290E012
:102610000E94C80960E18CE290E00E94CD0960E16F
:102620008CE290E00E94C80940E85AE166E070E060
:102630008CE490E00E94471A60E875E288EC90E034
:102640000E94F71C0E947B1640E854E86EE170E09F
:102650008CE490E00E94471A48EA51E660E070E09E
:1026600088ED90E00E9492100E94D51A87E594E0D0
:102670000E94A10C0E94D809FC01E680F780008529
:1026800011850F2EF7E6CF2EF1E0DF2EF02D1F93F0
:102690000F93FF92EF92DF92CF92CF93DF930E943E
:1026A000141E4D2F5C2F60E088EC90E00E944E1DC0
:1026B00047E554E06E2D7F2D802F912F0E94DB097E
:1026C0005C0183E1E0E8F1E0AD2FBC2F01900D92B9
:1026D0008A95E1F74D2F5C2F60E088EC90E00E9436
:1026E0004E1D88EC90E00E945B122DB73EB7285F2C
:1026F0003F4F0FB6F8943EBF0FBE2DBFA616B706CC
:10270000C0F027E534E0AB016E2D7F2D802F912F97
:102710000E942C0B94FF08C09F700E94140FE62E9D
:10272000F72E082F192FB3CF47E554E00E94A50FCD
:10273000AECF84E1E3E9F1E0AD2FBC2F01900D9223
:102740008A95E1F74D2F5C2F60E088EC90E00E94C5
:102750004E1D9DCF1F920F920FB60F9211242F93F3
:102760003F934F935F936F937F938F939F93AF9319
:10277000BF93EF93FF930E94D8098091640688234A
:1027800061F0863079F460E486E290E00E945A15A8
:10279000811108C01092640605C060E486E290E0F2
:1027A0000E945A15FF91EF91BF91AF919F918F9128
:1027B0007F916F915F914F913F912F910F900FBE3D
:1027C0000F901F901895CF92DF92EF92FF920F9388
:1027D0001F93CF93DF936B017C010E94D809EC011A
:1027E00060E880E290E00E94CD0960E880E290E03D
:1027F0000E94C80968E083E290E00E94CD0968E089
:1028000083E290E00E94C80960E886E290E00E94BE
:10281000CD0960E886E290E00E94C80960E18CE2A0
:1028200090E00E94CD0960E18CE290E00E94C8092E
:1028300060E489E290E00E94D20960E489E290E0DD
:102840000E94C80960E486E290E00E94551560E4A9
:1028500086E290E00E944F15C0926706D09268060B
:10286000E0926906F0926A06C701B6010E94140F51
:10287000609360067093610680936206909363068E
:1028800010925806E7E5F4E027E536E01192E217EA
:10289000F307E1F710926C0610926B06E7E5F2E0A1
:1028A00027E534E01192E217F307E1F710925F0693
:1028B00010925E064C815D8127E534E00E9461152F
:1028C000809158068F5F8093580610926C06109284
:1028D0006B064C815D81009160061091610620912C
:1028E00062063091630668017901C80ED11CE11CB3
:1028F000F11CC701B60127E532E00E946115809105
:1029000058068F5F8093580610925F0610925E06FD
:102910001092640681E0809357068CE00E94D91CD7
:102920007894809157068111FCCFF894DF91CF9174
:102930001F910F91FF90EF90DF90CF9008958F92AD
:102940009F92AF92BF92CF92DF92EF92FF920F933E
:102950001F93CF93DF937C01EB018A010E942B1D13
:10296000C82ED92EC00FD11FDF93CF9387EA91E0F5
:102970009F938F93DF92CF920E94141E4C2D5D2D5A
:1029800060E0C7010E944E1D1F930F938BEA91E0F8
:102990009F938F93DF92CF920E94141E4C2D5D2D3A
:1029A00060E0C7010E944E1D8E015E01E0E1AE0EA7
:1029B000B11C8DB79EB70C960FB6F8949EBF0FBE94
:1029C0008DBF0F2EF5EB8F2EF1E09F2EF02D89910C
:1029D0001F928F939F928F92DF92CF920E94141E2C
:1029E0004C2D5D2D60E0C7010E944E1D0F900F9091
:1029F0000F900F900F900F90AC16BD0641F7F801A5
:102A000061918F0180EE860F803608F06EE2C7017B
:102A10000E941E1D0A151B0591F76DE0C7010E945B
:102A20001E1D6AE0C7010E941E1DDF91CF911F91FC
:102A30000F91FF90EF90DF90CF90BF90AF909F905D
:102A40008F900895CF92DF92EF92FF920F931F9392
:102A5000CF93DF938C016B017A010E942B1DEC0157
:102A6000AC0160E082E391E10E942E1DAE0160E0C6
:102A7000C8010E944E1DC0E0D0E0AE01B701C80100
:102A80000E949F146096CC15DD05B8F3DF91CF91BD
:102A90001F910F91FF90EF90DF90CF900895FC0170
:102AA00091816095692361830895FC012281622BE5
:102AB00062830895FC018081682381E009F480E04D
:102AC0000895CF92DF92EF92FF920F931F93CF93CF
:102AD000DF936B017C01EA01890160E183E290E010
:102AE0000E94D209B701A60181E10E9497158111C8
:102AF0000EC0B801CE010E942016C82F60E183E20B
:102B000090E00E94CD09CC2341F0C0EF06C060E107
:102B100083E290E00E94CD09C0EF8C2FDF91CF912E
:102B20001F910F91FF90EF90DF90CF900895CF927B
:102B3000DF92EF92FF92CF938034A0F56A017B0180
:102B4000C82F682F60648CE490E00E94CE1A6F2D2D
:102B50007727882799278CE490E00E94CE1A6E2D63
:102B60008CE490E00E94CE1AEE24FF2499278F2D4A
:102B70007E2D6D2D8CE490E00E94CE1A6C2D8CE49D
:102B800090E00E94CE1ACC2321F0C83021F061E001
:102B900003C065E901C067E88CE490E00E94CE1AAA
:102BA00080E001C082E8CF91FF90EF90DF90CF905E
:102BB0000895EF92FF920F931F93CF93DF93D82F37
:102BC0008B01C0E06FEF8CE490E00E94CE1ACF5FE3
:102BD000882324F4C111F6CFC1E825C0CC23F1F03D
:102BE000F80180838230E0F4D230E0F07801FFEF2A
:102BF000EF1AFF0A8EEF8D0F90E00296E801C80FE2
:102C0000D91F6FEF8CE490E00E94CE1AF7018193F8
:102C10007F01EC17FD07A9F7C0E005C0C1E803C0BC
:102C2000C3E801C0C0E06FEF8CE490E00E94CE1AD0
:102C30008C2FDF91CF911F910F91FF90EF9008950E
:102C4000EF92FF920F931F93CF93DF938C017B0141
:102C5000C0E0D0E06FEF8CE490E00E94CE1A2196A5
:102C6000882324F42097B1F7C1E838C0CD2B79F13F
:102C700081112FC0C0E0D0E06FEF8CE490E00E94A3
:102C8000CE1A21968F3F21F42097B1F7C1E826C0D4
:102C9000CD2B09F18E3F09F50115110561F0E70112
:102CA0000E0D1F1D6FEF8CE490E00E94CE1A8993E9
:102CB000C017D107B9F76FEF8CE490E00E94CE1AED
:102CC0006FEF8CE490E00E94CE1AC0E007C0C1E82C
:102CD00005C0C3E803C0C1E801C0C4E86FEF8CE4DD
:102CE00090E00E94CE1A8C2FDF91CF911F910F910F
:102CF000FF90EF9008958F929F92AF92BF92DF92D4
:102D0000EF92FF920F931F93CF93DF93CDB7DEB770
:102D100028970FB6F894DEBF0FBECDBF0E942B1DC3
:102D2000082FD92E8FEF8093F00160E183E290E0CD
:102D30000E94CD0960E183E290E00E94C809402F23
:102D40005D2D60E089E692E10E942E1D402F5D2DF1
:102D500060E088EC90E00E944E1D1AE06FEF8CE47A
:102D600090E00E94CE1A1150C9F768E083E290E02B
:102D70000E94D209402F5D2D60E08AE592E10E9419
:102D80002E1D402F5D2D60E088EC90E00E944E1DCE
:102D900060E886E290E00E94D20960E183E290E080
:102DA0000E94D20940E050E0BA0180E00E949715ED
:102DB000182F81113AC0BE016F5F7F4F81E00E94E2
:102DC000D915182F60E183E290E00E94CD0968E0F8
:102DD00083E290E00E94CD09402F5D2D60E08EE0FF
:102DE00092E10E942E1D402F5D2D60E088EC90E066
:102DF0000E944E1D89811F928F938CEB91E09F93CF
:102E00008F93DF920F930E94141E402F5D2D60E080
:102E100088EC90E00E944E1D0F900F900F900F9045
:102E20000F900F90112389F01FC360E183E290E0BF
:102E30000E94CD0968E083E290E00E94CD0960E83D
:102E400080E290E00E94D209C1C168E083E290E094
:102E50000E94D209402F5D2D60E08BE492E10E9438
:102E60002E1D402F5D2D60E088EC90E00E944E1DED
:102E700060E183E290E00E94D2094AEA51E060E01A
:102E800070E088E00E949715182F811156C0BE018E
:102E90006F5F7F4F85E00E94D915182F60E183E2B4
:102EA00090E00E94CD0968E083E290E00E94CD09A5
:102EB000402F5D2D60E08EE092E10E942E1D402F9C
:102EC0005D2D60E088EC90E00E944E1DCE010196E1
:102ED0007C014E0196E0890E911C0F2EF5EBAF2E72
:102EE000F1E0BF2EF02DF70181917F011F928F93AA
:102EF000BF92AF92DF920F930E94141E402F5D2D60
:102F000060E088EC90E00E944E1D0F900F900F90B3
:102F10000F900F900F90E814F90429F76DE088ECFA
:102F200090E00E941E1D6AE088EC90E00E941E1D49
:102F30008D818A3A09F090C210C060E183E290E08E
:102F40000E94CD0968E083E290E00E94CD0960E82C
:102F500080E290E00E94D20902C0112319F11238D8
:102F600009F09CC089E08093F001402F5D2D60E066
:102F700080EF91E10E942E1D402F5D2D60E088ECD6
:102F800090E00E944E1D402F5D2D60E08FEA91E1A0
:102F90000E942E1D402F5D2D60E088EC90E00E9485
:102FA0004E1D30C282E08093F001402F5D2D60E025
:102FB00082ED91E10E942E1D402F5D2D60E088EC96
:102FC00090E00E944E1D1EC2BE016F5F7F4F85E0E4
:102FD0000E94D915182F60E183E290E00E94CD098C
:102FE00068E083E290E00E94CD09402F5D2D60E013
:102FF0008EE092E10E942E1D402F5D2D60E088EC56
:1030000090E00E944E1DCE0101967C014E0196E09B
:10301000890E911C0F2EF5EBAF2EF1E0BF2EF02D97
:10302000F70181917F011F928F93BF92AF92DF9240
:103030000F930E94141E402F5D2D60E088EC90E0FD
:103040000E944E1D0F900F900F900F900F900F90B9
:10305000E814F90429F76DE088EC90E00E941E1D49
:103060006AE088EC90E00E941E1D8B818C7F8C3F73
:1030700009F0F9C110C060E183E290E00E94CD093F
:1030800068E083E290E00E94CD0960E880E290E091
:103090000E94D209E9C1112319F0E6C11111E4C15E
:1030A0008091F001823021F0812C912C540105C0D7
:1030B000812C912C54016894B6F868E083E290E08A
:1030C0000E94D209402F5D2D60E08AE192E10E94CA
:1030D0002E1D402F5D2D60E088EC90E00E944E1D7B
:1030E00060E183E290E00E94D209E12CF12C40E003
:1030F00050E0BA0187E30E949715182F8111A5C1EE
:10310000BE016F5F7F4F81E00E94D915182F898122
:10311000823030F4B501A40189E20E949715182F7E
:10312000111106C0BE016F5F7F4F81E00E94D9156B
:10313000FFEFEF1AFF0A09F491C1898180FF03C0F4
:103140001123A9F234C0111132C060E183E290E092
:103150000E94CD0968E083E290E00E94CD09402FF3
:103160005D2D60E08EE092E10E942E1D402F5D2DCE
:1031700060E088EC90E00E944E1D89811F928F9341
:1031800080ED91E09F938F93DF920F930E94141E26
:10319000402F5D2D60E088EC90E00E944E1D0F9066
:1031A0000F900F900F900F900F9012C011E860E1F8
:1031B00083E290E00E94CD0968E083E290E00E9403
:1031C000CD0960E880E290E00E94D20911114CC163
:1031D0008091F001823009F013C168E083E290E051
:1031E0000E94D209402F5D2D60E08BE292E10E94A7
:1031F0002E1D402F5D2D60E088EC90E00E944E1D5A
:1032000060E183E290E00E94D20940E050E0BA0120
:103210008AE30E949715182F8111E2C0BE016F5FEB
:103220007F4F85E00E94D915182F60E183E290E07E
:103230000E94CD0968E083E290E00E94CD09402F12
:103240005D2D60E08EE092E10E942E1D402F5D2DED
:1032500060E088EC90E00E944E1DCE0101967C015A
:103260004E0196E0890E911C0F2EF5EBAF2EF1E08A
:10327000BF2EF02DF70181917F011F928F93BF9296
:10328000AF92DF920F930E94141E402F5D2D60E0DD
:1032900088EC90E00E944E1D0F900F900F900F90C1
:1032A0000F900F90E814F90429F76DE088EC90E096
:1032B0000E941E1D6AE088EC90E00E941E1D8A811B
:1032C00088230CF0C7C0807C803C89F41092F00108
:1032D000402F5D2D60E080E991E10E942E1D402F7E
:1032E0005D2D60E088EC90E00E944E1DBDC089E03D
:1032F0008093F001402F5D2D60E08FEA91E10E9404
:103300002E1D402F5D2D60E088EC90E00E944E1D48
:1033100068E083E290E00E94D209402F5D2D60E0DA
:103320008BE392E10E942E1D402F5D2D60E088EC22
:1033300090E00E944E1D60E183E290E00E94D2097D
:1033400040E052E060E070E080E10E949715182FA5
:1033500081118AC0BE016F5F7F4F81E00E94D91545
:10336000182F60E183E290E00E94CD0968E083E2DB
:1033700090E00E94CD09402F5D2D60E08EE092E14B
:103380000E942E1D402F5D2D60E088EC90E00E9491
:103390004E1D89811F928F9380ED91E09F938F93B3
:1033A000DF920F930E94141E402F5D2D60E088EC89
:1033B00090E00E944E1D402F5D2D60E082E791E17C
:1033C0000E942E1D402F5D2D60E088EC90E00E9451
:1033D0004E1D0F900F900F900F900F900F9044C0C4
:1033E00060E183E290E00E94CD0968E083E290E032
:1033F0000E94CD0960E880E290E00E94D20934C0CA
:1034000010E032C068E083E290E00E94D209402FD1
:103410005D2D60E08BE292E10E942E1D402F5D2D1C
:1034200060E088EC90E00E944E1D60E183E290E055
:103430000E94D20940E050E0BA018AE30E94971549
:10344000182F882309F4C0CD16CE8981823008F068
:103450006FCE60CE16E808C013E8B8CE898180FD33
:10346000A5CE11E870CE15E8812F28960FB6F894F6
:10347000DEBF0FBECDBFDF91CF911F910F91FF90A7
:10348000EF90DF90BF90AF909F908F900895CF9274
:10349000DF92EF92FF92CF93DF93EC016A017B0101
:1034A0008C349105A9F460E283E290E00E94CD099A
:1034B00060E283E290E00E94C80960E883E290E065
:1034C0000E94D20960E883E290E00E94C80917C018
:1034D0008C3A9105A1F468E08CE290E00E94CD095D
:1034E00068E08CE290E00E94C80960E889E290E020
:1034F0000E94D20960E889E290E00E94C80960E079
:1035000074E284EF90E0A70196010E949C1D223096
:1035100030F480E5888381E0898380E038C08EEFD5
:10352000820F823028F480E58883198280E02FC0E2
:103530008CEF820F843030F481E5888381E08983C9
:1035400080E025C088EF820F883028F481E58883E9
:10355000198280E01CC080EF820F803130F482E558
:10356000888381E0898380E012C080EE820F803200
:1035700028F482E58883198280E009C02054203431
:1035800028F483E58883198280E001C08FE0DF9111
:10359000CF91FF90EF90DF90CF900895FC01628370
:1035A00091819923ECF7828108952F923F924F9257
:1035B0005F926F927F928F929F92AF92BF92CF92C3
:1035C000DF92EF92FF920F931F93CF93DF9300D080
:1035D00000D0CDB7DEB762E083E290E00E94D2096E
:1035E00062E083E290E00E94C8090E942B1D5C010A
:1035F00062E083E290E00E94CD090F2EF2E3FF2EFD
:10360000F02D9E012D5F3F4F6901EE24E39401E010
:1036100021E030E040E050E063E488ED90E00E947B
:10362000BE11182FFA94882319F0F110EACF24C0A4
:10363000FF2011F1A50160E086E093E10E942E1DBC
:103640009B811F929F9320ED31E03F932F9390E059
:1036500001978A0D9B1D9F938F930E94141EA501B5
:1036600060E088EC90E00E944E1D0F900F900F904C
:103670000F900F900F9020C0A50160E080E293E1D1
:103680000E942E1D1F921F9320ED31E03F932F9338
:1036900090E001978A0D9B1D9F938F930E94141EAB
:1036A000A50160E088EC90E00E944E1D0F900F9005
:1036B0000F900F900F900F9068E083E290E00E94CF
:1036C000CD098B818C3A09F04DC1812C912CF401EC
:1036D000E250FF4F8491F401E150FF4FE491E98300
:1036E00032E0830E911C8F3F89F112E3482E512C5A
:1036F000612C712CCE0101966C01EE24E39401E063
:10370000A301920163E488ED90E00E94C410F82EBA
:10371000115009F01BC160E886E290E00E94CD09DB
:103720001F92FF9284EC91E09F938F93BF92AF9290
:103730000E94141EA50160E088EC90E00E944E1DDE
:103740000F900F900F900F900F900F90A50160E0D9
:1037500083EE92E10E942E1DA50160E088EC90E0CE
:103760000E944E1DA50160E088EC92E10E942E1D92
:10377000969487949F928F9220ED31E03F932F9300
:1037800090E001978A0D9B1D9F938F930E94141EBA
:10379000A50160E088EC90E00E944E1D60E18CE2A3
:1037A00090E00E94CD090F2EFCEC8F2EF0E09F2EB2
:1037B000F02D0F900F900F900F900F900F90F4013D
:1037C00084913196E491E9838F3FC9F012E3482E4A
:1037D000512C612C712C9E012F5F3F4F6901EE240B
:1037E000E39401E0A301920163E488ED90E00E947C
:1037F000C4101150882309F4ACC01111ECCF60E85B
:1038000080E290E00E94CD090F2EFFE38F2EF3E1BE
:103810009F2EF02D0F2EFDE22F2EF3E13F2EF02DE7
:10382000F401F490F101849189834F2C512C612C87
:10383000712C9E012F5F3F4F6901EE24E39401E05C
:10384000A301920163E488ED90E00E94C41011E3AB
:1038500086C0CE0101966C01EE24E39401E0A30141
:10386000920163E488ED90E00E94C410115009F0C9
:1038700076C060E886E290E00E94CD09A50160E094
:1038800087EB92E10E942E1D99811F929F931F92B8
:10389000FF92E9ECF1E0FF93EF9390E001978A0D3E
:1038A0009B1D9F938F930E94141EA50160E088ECDE
:1038B00090E00E944E1DCE0103966C01EE24E3942D
:1038C00001E0A301920163E488ED90E00E94BE1143
:1038D000182FA50160E082EA92E10E942E1D1F923E
:1038E0001F939B811F929F931F92FF92E9EDF1E03E
:1038F000FF93EF9390E001978A0D9B1D9F938F9309
:103900000E94141EA50160E088EC90E00E944E1D0C
:103910003FEF831A930A8FEF281A380A0FB6F894EC
:10392000DEBF0FBECDBFF1E58F16F3E19F0609F0B4
:1039300077CFA50160E089E892E10E942E1DA501E4
:1039400060E088EC90E00E944E1D0CC08111D2CE48
:10395000BECE22E0820E911C111131CF50CF8111C9
:1039600078CF8CCF68E083E290E00E94D20960E1DA
:103970008CE290E00E94D20960E880E290E00E9430
:10398000D209812F0F900F900F900F90DF91CF9160
:103990001F910F91FF90EF90DF90CF90BF90AF906D
:1039A0009F908F907F906F905F904F903F902F905F
:1039B0000895A82FB0E020E034E244EF50E00E94E8
:1039C000BE1D7053884F9F4F20E030EA4FE050E01B
:1039D0000E949C1D21502093B30082E080937000D0
:1039E0008093B00087E08093B10080E00895CF938A
:1039F000DF93EC01CB01A0E0B0E0880F991FAA1F74
:103A0000BB1F880F991FAA1FBB1F9C01AD01220F6E
:103A1000331F441F551F60E074E284EF90E00E9462
:103A20009C1D215031093D832C8382E0888386E0F0
:103A30008A8388E18983DF91CF910895FC01908189
:103A400095FFFDCF668380E00895FC019081992366
:103A5000ECF78681089581EF91E0089561110EC021
:103A6000262F30E0FC01E20FF31FE491DA01A20FF0
:103A7000B31FEC936F5FE111F3CF0EC0FC01DA01CD
:103A80008FEF860F90E00196480F591F84918D9318
:103A90003196A417B507D1F7862F0895CF92DF92FC
:103AA000EF92FF920F931F93CF93DF937C018A01D4
:103AB000662331F0C62ED12C1C141D0474F01FC0D7
:103AC000FA0160816623D9F0EA012196C7010E94BC
:103AD0001E1D69916111FACF12C0C0E0F801EC0F10
:103AE000F11DC7FDFA956081C7010E941E1DCF5FC1
:103AF0008C2F0C2E000C990B8C159D057CF3DF91FF
:103B0000CF911F910F91FF90EF90DF90CF9008958C
:103B1000AA1BBB1B51E107C0AA1FBB1FA617B707F3
:103B200010F0A61BB70B881F991F5A95A9F780950F
:103B30009095BC01CD010895A1E21A2EAA1BBB1BD2
:103B4000FD010DC0AA1FBB1FEE1FFF1FA217B30769
:103B5000E407F50720F0A21BB30BE40BF50B661F7F
:103B6000771F881F991F1A9469F760957095809543
:103B700090959B01AC01BD01CF0108950E94C91D24
:103B8000A59F900DB49F900DA49F800D911D1124B1
:103B90000895A29FB001B39FC001A39F700D811D26
:103BA0001124911DB29F700D811D1124911D089546
:103BB0001F93FC0199278827BC01E89411911032CA
:103BC000E9F3193010F01E30C8F31B3251F01D32EA
:103BD00049F4689406C00E94FF1D610F711D811D8C
:103BE000911D119110531A30B0F33EF490958095C9
:103BF000709561957F4F8F4F9F4F1F910895592F5B
:103C0000482F372F262F660F771F881F991F660FA3
:103C1000771F881F991F620F731F841F951F660FE0
:103C2000771F881F991F0895AEE0B0E0EAE1FEE13A
:103C30000C94D5200D891E8986E08C831A83098314
:103C40008FEF9FE79E838D83AE01475E5F4F6F8945
:103C5000788DCE0101960E94361EEF81F885E00F27
:103C6000F11F10822E96E4E00C94F120ABE0B0E05E
:103C7000ECE3FEE10C94C7206C017B018A01FC019E
:103C800017821682838181FFCCC1CE0101963C014F
:103C9000F6019381F70193FD859193FF81917F0157
:103CA000882309F4BAC1853239F493FD859193FFD5
:103CB00081917F01853229F4B60190E00E942D2088
:103CC000E7CF912C212C312CFFE1F315D8F08B326A
:103CD00079F038F4803279F08332A1F4232D206119
:103CE0001DC08D3261F0803369F4232D216016C030
:103CF000832D8260382EE32DE4603E2E2AC0F32D02
:103D0000F8601DC037FC2DC020ED280F2A3040F090
:103D10008E32B9F436FC81C1232D2064322E19C0B5
:103D200036FE06C08AE0989E200D1124922E11C006
:103D3000EAE02E9E200D1124222EF32DF0623F2E5C
:103D400008C08C3621F4832D8068382E02C0883656
:103D500041F4F70193FD859193FF81917F018111DA
:103D6000B3CF982F9F7D9554933028F40C5F1F4F4D
:103D70009FE399830DC0833631F0833771F083352B
:103D800009F059C021C0F801808189830E5F1F4F5F
:103D900088248394912C530113C02801F2E04F0E24
:103DA000511CF801A080B18036FE03C0692D70E07F
:103DB00002C06FEF7FEFC5010E9422204C018201FB
:103DC000F32DFF773F2E16C0280122E0420E511C32
:103DD000F801A080B18036FE03C0692D70E002C0FA
:103DE0006FEF7FEFC5010E9417204C01F32DF068A3
:103DF0003F2E820133FC1BC0822D90E0881699066D
:103E0000B0F4B60180E290E00E942D202A94F4CF15
:103E1000F50137FC859137FE81915F01B60190E095
:103E20000E942D2021102A9421E0821A91088114E9
:103E3000910471F7E8C0843611F0893641F5F80134
:103E400037FE07C060817181828193810C5F1F4FB3
:103E500008C060817181072E000C880B990B0E5FE2
:103E60001F4FF32DFF763F2E97FF09C09095809549
:103E7000709561957F4F8F4F9F4FF0683F2E2AE0DE
:103E800030E0A3010E946920882E861845C085373E
:103E900031F4232D2F7EB22E2AE030E025C0932D61
:103EA000997FB92E8F36C1F018F4883579F0B5C0F6
:103EB000803719F0883721F0B0C0E92FE061BE2EBD
:103EC000B4FE0DC0FB2DF460BF2E09C034FE0AC045
:103ED000292F2660B22E06C028E030E005C020E180
:103EE00030E002C020E132E0F801B7FE07C0608197
:103EF0007181828193810C5F1F4F06C06081718147
:103F000080E090E00E5F1F4FA3010E946920882E81
:103F10008618FB2DFF773F2E36FE0DC0232D2E7FFA
:103F2000A22E891458F434FE0BC032FC09C0832D34
:103F30008E7EA82E05C0B82CA32C03C0B82C01C0BF
:103F4000B92CA4FE0FC0FE01E80DF11D8081803365
:103F500021F49A2D997EA92E09C0A2FE06C0B39421
:103F6000B39404C08A2D867809F0B394A3FC11C0E1
:103F7000A0FE06C0B21488F4280C922C9B180EC028
:103F8000B21460F4B60180E290E00E942D20B39458
:103F9000F7CFB21418F42B1802C0982C212CA4FED1
:103FA00010C0B60180E390E00E942D20A2FE17C051
:103FB000A1FC03C088E790E002C088E590E0B6016C
:103FC0000CC08A2D867859F0A1FE02C08BE201C098
:103FD00080E2A7FC8DE2B60190E00E942D208914BA
:103FE00038F4B60180E390E00E942D209A94F7CF38
:103FF0008A94F301E80DF11D8081B60190E00E94E2
:104000002D208110F5CF222009F442CEB60180E2A6
:1040100090E00E942D202A94F6CFF60186819781A8
:1040200002C08FEF9FEF2B96E2E10C94E320FC019E
:104030000590615070400110D8F7809590958E0FD3
:104040009F1F0895FC016150704001900110D8F746
:10405000809590958E0F9F1F08950F931F93CF9378
:10406000DF93FB01238121FD03C08FEF9FEF2CC065
:1040700022FF16C04681578124813581421753079C
:1040800044F4A081B1819D012F5F3F4F3183208394
:104090008C93268137812F5F3F4F3783268314C04F
:1040A0008B01EC01FB010084F185E02D0995892B42
:1040B000E1F6D80116968D919C9117970196179667
:1040C0009C938E931697CE01DF91CF911F910F9104
:1040D0000895FA01AA27283051F1203181F1E8949E
:1040E0006F936E7F6E5F7F4F8F4F9F4FAF4FB1E0EB
:1040F0003ED0B4E03CD0670F781F891F9A1FA11DE6
:10410000680F791F8A1F911DA11D6A0F711D811DE6
:10411000911DA11D20D009F468943F912AE0269FAB
:1041200011243019305D3193DEF6CF010895462F0A
:104130004770405D4193B3E00FD0C9F7F6CF462FEB
:104140004F70405D4A3318F0495D31FD4052419354
:1041500002D0A9F7EACFB4E0A69597958795779511
:104160006795BA95C9F700976105710508959B0198
:10417000AC010A2E06945795479537952795BA9521
:10418000C9F7620F731F841F951FA01D08952F92FA
:104190003F924F925F926F927F928F929F92AF92D7
:1041A000BF92CF92DF92EF92FF920F931F93CF9324
:1041B000DF93CDB7DEB7CA1BDB0B0FB6F894DEBFBB
:1041C0000FBECDBF09942A88398848885F846E84E1
:1041D0007D848C849B84AA84B984C884DF80EE802B
:1041E000FD800C811B81AA81B981CE0FD11D0FB634
:1041F000F894DEBF0FBECDBFED010895F894FFCF58
:104200002535642E20005B4449525D0A0D00436C45
:104210007573746572233A2025396C752C202053F0
:104220006563746F72233A2025396C752C202053F6
:1042300065634F66667365743A20256C750A0D00D8
:10424000507265737320537061636520746F2043EF
:104250006F6E74696E7565206F72205820746F20C0
:10426000657869740A0D004469726563746F7279C8
:1042700020536563746F72203D20256C750A0D0014
:10428000456E7465722053656C656374696F6E204A
:104290003D2000496E76616C69642053656C6563EE
:1042A00074696F6E0A0D0025702000307825342E59
:1042B000345820200025322E3258200025322E324C
:1042C000580A0D0025750A0D0025322E325820207F
:1042D00025322E3258200A0D0025322E3258202049
:1042E00025322E32582025322E3258200A0D000059
:00000001FF
